:020000040800F2
:10000000300C0020A51700083D0400083F0400083C
:1000100043040008470400084B04000800000000E7
:100020000000000000000000000000004F04000875
:1000300051040008000000005304000855040008A3
:10004000BF170008BF170008BF170008BF17000838
:10005000BF170008BF170008BF170008BF17000828
:10006000BF170008BF170008BF170008BF17000818
:10007000BF170008BF170008BF170008BF17000808
:10008000BF170008BF170008BF170008BF170008F8
:10009000BF170008BF170008BF170008BF170008E8
:1000A000BF170008BF170008BF170008BF170008D8
:1000B000BF170008BF170008BF170008BF170008C8
:1000C000BF170008BF170008BF170008BF170008B8
:1000D000BF17000879170008BF170008E1250008BE
:1000E000BF170008BF170008BF170008BF17000898
:1000F000BF170008BF170008BF170008BF17000888
:10010000BF170008BF170008BF170008BF17000877
:10011000BF170008BF170008BF170008BF17000867
:10012000BF170008BF170008BF170008BF17000857
:1001300000F002F800F094F80AA090E8000C824465
:100140008344AAF10107DA4501D100F089F8AFF242
:10015000090EBAE80F0013F0010F18BFFB1A43F0A5
:100160000103184708A5000028A50000103A24BF85
:1001700078C878C1FAD8520724BF30C830C144BF0C
:1001800004680C607047000000230024002500264E
:10019000103A28BF78C1FBD8520728BF30C148BFEA
:1001A0000B6070476E2905F02187702905F0EF83F9
:1001B000662908F04485652908F04185672908F01B
:1001C0003E856129AFF3008003681B0A28BF41F018
:1001D0008001692905F06083642905F05D83752934
:1001E00005F05A836F2906F01D82782905F0BB833C
:1001F000E92906F0B781E42906F0B481F52906F073
:10020000B181EF2906F01A82F82905F0BA83036854
:10021000DB0928BF41F08001632906F0388173298A
:1002200006F03D81E32906F0FD82F32906F0028302
:10023000002070471FB59DE8030005F02BFE06F077
:1002400043FA04000020002107F066FE401C6060B5
:100250000020002107F076FEE0601FBD10B510BD44
:1002600006F0D2FB1146FFF7E5FF00F009F806F0B3
:10027000FEFB03B4FFF7F2FF03BC06F06BFC0000CB
:1002800008B501F0DBF800F0FFFB00F023FC4FF4B1
:10029000E13001F03DF94FF4E13001F0DDF900F01B
:1002A00035FC02F00DF900F03BFF01F0A4F810233B
:1002B00044A20021062000F004FF102345A21946A5
:1002C000182000F0FEFE102344A21946582000F02A
:1002D000F8FE102342A22021182000F0F2FE102385
:1002E00041A22021582000F0ECFE10233FA2302133
:1002F000182000F0E6FE102338A23021582000F02C
:10030000E0FE00F067FD03E04FF4FA7001F0D3F86F
:1003100003F022F90028F7D10121364803F086F9CD
:100320004FE000F006FC344908703449344801F0CD
:1003300036F81020022300902F4802781021482020
:1003400000F075FE1020022300902D480278202135
:10035000402000F06CFE1020022300902748027815
:100360003021402000F063FE00F034FD2548008875
:10037000401C80B223490880322813DB1F480078D4
:1003800000901F4803781C4802781FA1274805F0F9
:100390001DFA264926A003F071F9002019490880AA
:1003A00002F012F8032002F06AF8234908600846B8
:1003B000006818B10846006803F08BF90A2001F0C4
:1003C0007AF8AEE7534D41525420434F4D4D554EB0
:1003D000495459004C696768743A000025000000D0
:1003E00054656D703A0000004300000048756D6967
:1003F0003A0000000400002001000020030000205B
:1004000002000020080000207B224C6967687422EB
:100410003A25642C2254656D70223A25642C2248BA
:10042000756D69223A25647D0000000050000020AF
:1004300064617461000000000C000020704700BF80
:10044000FEE700BFFEE700BFFEE700BFFEE7704724
:1004500070477047704700000CB500200190009075
:100460006C48006840F480306A49086000BF694801
:10047000006800F4003000900198401C0190009842
:1004800018B90198B0F5A06FF1D16248006800F486
:10049000003010B10120009001E000200090009891
:1004A000012843D15C48006840F010005A490860B8
:1004B0000846006820F0030008600846006840F025
:1004C0000200086053484068524948600846406846
:1004D00048600846406840F48060486008464068CC
:1004E00020F47C1048600846406840F4E8104860FA
:1004F0000846006840F08070086000BF454800680A
:1005000000F000700028F9D04248406820F0030055
:10051000404948600846406840F00200486000BF1B
:100520003C48406800F00C000828F9D10CBD10B51B
:10053000FFF792FF10BD10B53648006840F001008B
:1005400034490860084640683449084031494860E9
:1005500008460068324908402E490860084600688D
:1005600020F4802008600846406820F4FE004860BF
:100570004FF41F008860FFF7DAFF4FF00060294951
:10058000086010BD10B5002100200022214B5B68DF
:1005900003F00C0121B1042906D0082928D107E075
:1005A000214B224C236027E01F4B204C236023E08B
:1005B000184B5B6803F47010164B5B6803F48032D1
:1005C000022303EB904022B9194B4343174C23609D
:1005D0000DE0104B5B6803F4003323B1144B43432D
:1005E000124C236003E0104B4343104C236003E0A4
:1005F0000D4B0E4C236000BF00BF064B5B68C3F37E
:1006000003130C4CE15C094B1B68CB40074C236087
:1006100010BD000000100240002002400000FFF862
:10062000FFFFF6FE08ED00E000127A001000002047
:1006300000093D001400002010B50446FA48844229
:1006400008D10121401501F071FC0021601501F075
:100650006DFC17E0F548844208D10121001501F036
:1006600065FC0021201501F061FC0BE0F04884429C
:1006700008D10121C80301F059FC00214FF40040CA
:1006800001F054FC10BD30B5024600200023506834
:10069000E84C20400D790C6844EA05242043506062
:1006A0009068E54C2040D1E902542C434D7944EA4E
:1006B000450420439060D06A20F470000C7C641ED6
:1006C000E4B2234340EA0350D06230BD0021016010
:1006D000017141718160C16001210174704721B1D4
:1006E000826842F00102826003E0826822F0010227
:1006F0008260704721B1826842F48072826003E0B8
:10070000826822F480728260704710B50023CBB2F9
:100710001AB144681C43446002E044689C4344604E
:1007200010BD816841F008018160704701460020DA
:100730008A6802F008020AB1012000E00020704738
:10074000816841F0040181607047014600208A6899
:1007500002F004020AB1012000E00020704721B13C
:10076000826842F4A002826003E0826822F4A00260
:1007700082607047014600208A6802F480020AB154
:10078000012000E00020704710B50A460021002338
:10079000416821F46041531E41EA4331416010BD7C
:1007A00021B1426842F40062426003E0426822F4F0
:1007B000006242607047F0B504460D4600200021FB
:1007C000092D11DDE068A5F10A0606EB46070726AC
:1007D00006FA07F18843A5F10A0606EB460603FA76
:1007E00006F10843E0600CE0206905EB45070726A9
:1007F00006FA07F1884305EB450603FA06F10843BC
:100800002061072A0FDA606B561E06EB86071F264B
:1008100006FA07F18843561E06EB860605FA06F12E
:100820000843606322E00D2A0FDA206BD61F06EB27
:1008300086071F2606FA07F18843D61F06EB8606B1
:1008400005FA06F10843206310E0E06AA2F10D0604
:1008500006EB86071F2606FA07F18843A2F10D066C
:1008600006EB860605FA06F10843E062F0BD21B109
:10087000826842F48012826003E0826822F480126F
:10088000826070470146C86C80B2704766484C3041
:100890000068704721B1426842F48062426003E020
:1008A000426822F480624260704721B1426842F49B
:1008B0008052426003E0426822F4805242607047F6
:1008C0000A460021816821F4E041114381607047AC
:1008D00021B1826842F40042826003E0826822F41F
:1008E00000428260704721B1826842F40212826045
:1008F00003E0826822F40212826070470146002001
:100900008A6802F400120AB1012000E0002070475A
:10091000F0B504461546002000220026092911DD05
:10092000E068A1F10A0707EB470C072707FA0CF26A
:100930009043A1F10A0707EB470703FA07F21043B8
:10094000E0600CE0206901EB410C072707FA0CF28C
:10095000904301EB410703FA07F210432061A06BBB
:10096000C0F30156EF1C06F1010CA7EB0C0707EBD7
:10097000870C1F2707FA0CF29043EF1C06F1010CBD
:10098000A7EB0C0707EB870701FA07F21043A063F8
:10099000F0BD10B50A4600210023816B21F44011FF
:1009A000531E41EA0351816310BD08B50023009333
:1009B0000090009B0B440093009B1A6008BD08B593
:1009C000024600200090009201F12800009B18448C
:1009D00000900098006880B208BD0A460021416876
:1009E000164B194011434160704741628262704763
:1009F0000A460021416821F01F0111434160704700
:100A000040B109490831096841F40001064A083239
:100A1000116007E004490831096821F40001024A25
:100A20000832116070470000002401400028014096
:100A3000003C0140FFFEF0FFFDF7F1FFFFFD3FFF2F
:100A40000246002013680B400BB1012000E000209B
:100A50007047CA430260704770B502460020002309
:100A600000240B125568CEB205EA060415681D4035
:100A700015B10CB1012000E0002070BD00220A1267
:100A8000D34303607047000008B50121482001F0FE
:100A900033FA2020ADF8000010208DF80300032069
:100AA0008DF802006946094800F06AFF20210748D6
:100AB00001F013F82020ADF800006946044800F06A
:100AC0005FFF2021024801F008F808BD000C01403A
:100AD0000018014008B50121082001F00DFA4FF47B
:100AE0008070ADF8000010208DF8030003208DF811
:100AF00002006946044800F043FF4FF48071024849
:100B000000F0EDFF08BD0000000C014008B5012118
:100B1000802001F0F1F94FF48070ADF80000002062
:100B20008DF803006946124800F02AFF00F0D5F85E
:100B300008BD70B50024002508E0062000F009F982
:100B40000444052000F0B7FC681CC5B20A2DF4DB94
:100B50000A20B4FBF0F4B4F57A6F01D94FF47A644B
:100B60002820B4FBF0F0C0F16400C0B270BD0000FA
:100B7000001C014000B585B001214FF4017001F067
:100B8000BBF94FF4004001F01BF97D48FFF754FD1D
:100B9000002000908DF804008DF805004FF46020CF
:100BA00002900020039001208DF8100069467448DF
:100BB000FFF769FD0120FFF723FF01217048FFF7D0
:100BC0008EFD6F48FFF7ADFD00BF6D48FFF7AEFD2E
:100BD0000028FAD16A48FFF7B3FD00BF6848FFF765
:100BE000B4FD0028FAD105B000BD10B504460723B6
:100BF000012221466248FFF7DEFD01216048FFF730
:100C0000AEFD00BF02215E48FFF71AFF0028F9D0B1
:100C10005B48FFF737FE10BD70B50024002509E0E2
:100C20001020FFF7E2FF204484B2052000F043FCCF
:100C3000681CC5B20A2DF3DB0A2094FBF0F080B2E9
:100C400070BD2DE9F04107460C460025002608E05E
:100C50003846FFF7CAFF0544052000F02CFC701C45
:100C6000C6B2A642F4DBB5FBF4F080B2BDE8F08179
:100C70002DE9F05F14211020FFF7E3FF834658466B
:100C800007F084FF804607F055FF06464FF06632B6
:100C90003C4B07F03FFC04460D4622462B463A48A3
:100CA0003A4907F05DFE8046394A3A4B07F01CFA94
:100CB00006460022384B07F05BF904460D46002239
:100CC000364B2046294607F025FC064607F0A0FBD8
:100CD0000FFA80FA5046BDE8F09F00B585B00121BB
:100CE000C80301F009F90121C80301F01FF900212F
:100CF0004FF4004001F01AF92948FFF79DFC00204D
:100D000000908DF804008DF805004FF460200290EB
:100D10000020039001208DF8100069462048FFF75D
:100D2000B2FC01211E48FFF7DAFC1D48FFF7F9FC71
:100D300000BF1B48FFF7FAFC0028FAD11848FFF75C
:100D4000FFFC00BF1648FFF700FD0028FAD105B0F0
:100D500000BD10B504460723012221461048FFF7C5
:100D60002AFD01210E48FFF7FAFC00BF02210C48C2
:100D7000FFF766FE0028F9D00948FFF783FD10BD94
:100D80000024014066664A3FE17A14AE47E1F63F2F
:100D900022FDF675E09C713F00003940000059408B
:100DA000003C014070B504460D462146FE4800F067
:100DB0009DFEFE4805600020FD49C1F89801FD49EF
:100DC000086001200860F9490C310860F849C1F851
:100DD0008C0170BD70B500241CE004F1B001C8B2F4
:100DE0000021FFF7DFFF00210846FFF7DBFF0021AE
:100DF0001020FFF7D7FF002508E0EF4901EBC50100
:100E0000085D0121FFF7CEFF681CC5B2802DF4DB21
:100E1000601CC4B2082CE0DB70BD10B500218D2031
:100E2000FFF7C0FF00211420FFF7BCFF0021AF2017
:100E3000FFF7B8FF10BD10B500218D20FFF7B2FFFE
:100E400000211020FFF7AEFF0021AE20FFF7AAFF20
:100E500010BD70B500240CE0002506E00020D64946
:100E600001EBC5010855681CC5B2802DF6DB601C7E
:100E7000C4B2082CF0DBFFF7ADFF70BDF0B514462F
:100E800000267F2801DC3F2900DDF0BD0B46CF178F
:100E900001EB5777FF10C7F10707FAB2CF1701EB45
:100EA0005777FF10A1EBC707FDB2C5F10707012374
:100EB000BB40DEB24CB1C04B03EBC0039B5C334381
:100EC000BD4F07EBC007BB5408E0BB4B03EBC003AF
:100ED0009B5CB343B84F07EBC007BB5400BFD4E7DC
:100EE0002DE9F04706460F4690469946DDF820A0CA
:100EF00034460CE03D4606E0524629462046FFF7C0
:100F0000BDFF681CC5B24D45F6DD601CC4B244454A
:100F1000F0DDFFF75FFFBDE8F0872DE9F84F804671
:100F20000F4616461C46BA462046E31704EB537399
:100F3000DB1021464FEAE47C04EB5C7C4FEAEC0CCE
:100F4000A4EBCC0CBCF1000F02D04FF0010C01E07F
:100F50004FF0000C6344224604EBD27C4FEA6C0C49
:100F600003FB0CF303F0FF0BA6F12000C6B2002533
:100F70004EE00C2C07D106EB4600904901EB8000B7
:100F8000405D009013E0102C05D18D4800EB061059
:100F9000405D00900BE0182C07D106EBC600894994
:100FA00001EB8000405D009001E0BDE8F88F4FF05C
:100FB000000927E0009800F0800028B1394640463B
:100FC0000A9AFFF75BFF09E00A9808B9012000E0E0
:100FD0000020024639464046FFF750FF0098400681
:100FE000000E0090781CC7B2A7EB0A00A04205D102
:100FF000574608F1010000F0FF0806E009F1010082
:1010000000F0FF09B9F1080FD4DB00BF681CC5B2BE
:101010005D45AEDB00BFC8E710B50246012000E029
:1010200050430B00A1F10104E1B2F9D110BD2DE94B
:10103000FF4F81B0074691461E460E9D4FF0000AB5
:10104000002439E0301B401EC1B20A20FFF7E4FF44
:10105000B9FBF0F00A21B0FBF1F201FB1208BAF182
:10106000000F16D1701EA04213DDB8F1000F0ED193
:101070000120AB4605EBDB71491001FB04710090C8
:10108000C8B22B4620220299FFF747FF12E04FF02B
:10109000010A0120AB4605EBDB71491001FB04712D
:1010A0000090C8B208F13001CAB22B460299FFF78E
:1010B00034FF00BF601CC4B2B442C3DB05B0BDE85E
:1010C000F08FF8B506460F4615461C4621E004EBA6
:1010D000D4714910C1F18001B14202DA00263819F9
:1010E000C7B2C4F14000B84204DA00200646074601
:1010F000FFF7AFFE012000902A782346394630469C
:10110000FFF70BFF204604EBD07106EB6101CEB276
:101110006D1C28787E2802DC28782028D7DAF8BDD4
:1011200008B501214FF4987000F0E6FE4820ADF8B4
:10113000000010208DF8030003208DF8020069469E
:10114000214800F01DFC48211F4800F0C6FCFF208C
:10115000ADF800006946144800F012FCFF21124867
:1011600000F0BBFC4FF46040ADF800006946174842
:1011700000F006FC4FF46041144800F0AEFC012082
:101180000A490C3108600A49C1F88C01002009495C
:10119000091D0860642000F08EF901200C49C1F897
:1011A000BC010021AE2015E0001001408C812242DC
:1011B00000802242B801244250010020328D0008F4
:1011C000A6910008969700080014014000200140F5
:1011D00000002442FFF7E6FD0021D520FFF7E2FDE5
:1011E00000215020FFF7DEFD0021A820FFF7DAFDE7
:1011F00000213F20FFF7D6FD0021D320FFF7D2FDCD
:1012000000210846FFF7CEFD00214020FFF7CAFD70
:1012100000218D20FFF7C6FD00211420FFF7C2FD3D
:1012200000212020FFF7BEFD00210220FFF7BAFDBC
:101230000021A120FFF7B6FD0021C020FFF7B2FD7D
:101240000021DA20FFF7AEFD00211220FFF7AAFDF2
:1012500000218120FFF7A6FD0021EF20FFF7A2FD6E
:101260000021D920FFF79EFD0021F120FFF79AFD14
:101270000021DB20FFF796FD00213020FFF792FDD3
:101280000021A420FFF78EFD0021A620FFF78AFD94
:101290000021AF20FFF786FDFFF7DBFD08BD000052
:1012A00010B56348406820F47040614948600846C2
:1012B000406840F44050486000205E4908601420B7
:1012C00000F0F9F801205C49C1F8AC011E2000F0E3
:1012D000CEF810BD10B500245548406820F4704089
:1012E000534948600846406840F40040486004E0C4
:1012F000601CC4B2012000F0BAF84E488038006883
:1013000008B1642CF4DB642C01DB012010BD002447
:1013100004E0601CC4B2012000F0A9F84548803800
:10132000006808B9642CF4DB642C01DB0120EDE7D4
:101330000020EBE710B5002404E0601CC4B20120DB
:1013400000F095F83B488038006808B1642CF4DB65
:10135000002404E0601CC4B2012000F088F8354885
:101360008038006808B9642CF4DB282000F07FF88E
:1013700030488038006808B1012010BD0020FCE72B
:1013800070B50024002506E06006040EFFF7D2FFCA
:101390000443681CC5B2082DF6DB204670BD7CB541
:1013A00005460E46FFF77CFFFFF794FFF8B90024CF
:1013B00005E0FFF7E5FF0DF80400601CC4B2052C42
:1013C000F7DB9DF800009DF8011008449DF802101D
:1013D00008449DF8031008449DF80410884208D181
:1013E0009DF8000030709DF80200287001E0012097
:1013F0007CBD0020FCE708B50121080200F07CFD5F
:101400004FF40060ADF8000010208DF803000320B9
:101410008DF802006946064800F0B2FA4FF4006108
:10142000034800F05AFBFFF73BFFFFF753FF08BDEF
:1014300000200140AC0124420000244210B56FF0AE
:10144000040000F01EFA2E4800682E49B0FBF1F0AF
:101450002D4908700846007800EB4001C1EBC01030
:101460004FF6FF7101EAC0002849088010BD01460F
:10147000254A12784A434FF0E0235A6100229A61CC
:101480001A46126942F001021A6100BF4FF0E022D1
:10149000106900F001021AB100F48032002AF5D080
:1014A0004FF0E022126922F001024FF0E0231A61AE
:1014B00000229A6170470146144A12884A434FF04D
:1014C000E0235A6100229A611A46126942F0010231
:1014D0001A6100BF4FF0E022106900F001021AB15A
:1014E00000F48032002AF5D04FF0E022126922F099
:1014F00001024FF0E0231A6100229A617047000058
:101500001000002000127A00240000202600002095
:1015100010B586B004460121042000F0EDFC012145
:10152000880300F0E9FC18208DF817004FF40070D4
:10153000ADF8140003208DF8160005A9944800F0BA
:101540001FFA04208DF817000002ADF814000320E4
:101550008DF8160005A98E4800F012FA01940020BB
:10156000ADF810000C20ADF80E000020ADF80C0016
:10157000ADF80A00ADF8080001A9864800F063FD47
:101580000121844800F0EBFD012240F22551814801
:1015900000F0F1FD25208DF8000001208DF80300FA
:1015A00000208DF8010002208DF80200684600F04E
:1015B0001EF906B010BD10B586B004460121042006
:1015C00000F09AFC0121480400F0A3FC18208DF8DB
:1015D00017000420ADF8140003208DF8160005A9AB
:1015E0006B4800F0CDF904208DF817000820ADF805
:1015F000140003208DF8160005A9654800F0C0F915
:1016000001940020ADF810000C20ADF80E00002071
:10161000ADF80C00ADF80A00ADF8080001A95E486D
:1016200000F011FD01215C4800F099FD012240F21B
:101630002551594800F09FFD26208DF8000001201B
:101640008DF8030000208DF801008DF80200684637
:1016500000F0CDF806B010BD10B586B004460121EB
:10166000082000F049FC0121880400F052FC1820F9
:101670008DF817004FF48060ADF8140003208DF84A
:10168000160005A9454800F07BF904208DF81700E5
:101690004002ADF8140003208DF8160005A93F485C
:1016A00000F06EF901940020ADF810000C20ADF8A8
:1016B0000E000020ADF80C00ADF80A00ADF80800EF
:1016C00001A9374800F0BFFC0121354800F047FD73
:1016D000012240F22551324800F04DFD27208DF8BF
:1016E000000001208DF8030000208DF80100032088
:1016F0008DF80200684600F07AF806B010BD2DE9BA
:10170000F04107460C46154600260DE014F8011B73
:10171000384600F091FD00BF4021384600F0FAFD48
:101720000028F9D0701C86B2AE42EFDBBDE8F08134
:101730000FB430B5CBB0054601AC50A800904FF4C3
:10174000947101A8009B4F9A04F026F800200090A5
:101750000BE014F8011B284600F06EFD00BF40218D
:10176000284600F0D7FD0028F9D020780028F0D1D5
:101770004BB030BC5DF814FB10B540F22551054864
:1017800000F0DEFD18B12021024800F0D0FD10BDB0
:10179000000801400038014000440040000C0140B6
:1017A000004800400948804709480047FEE7FEE737
:1017B000FEE7FEE7FEE7FEE7FEE7FEE7FEE7FEE701
:1017C00004480549054A064B7047000037050008E4
:1017D0003101000830060020300C002030080020C5
:1017E0003008002031490143314A1160704770B51B
:1017F000002100230F22C47804B32D4C246804F484
:10180000E064C4F5E064210AC1F10403CA404478ED
:1018100004FA03F18478144021430901254C067829
:10182000A155047804F01F050124AC4005786D1122
:10183000AD0005F1E025C5F8004109E0047804F0A9
:101840001F050124AC401C4D0678761145F8264052
:1018500070BD1A4A0A400243154B1B1F1A6070479D
:1018600039B1134A121D12680243114B1B1D1A6035
:1018700006E00F4A121D126882430D4B1B1D1A60B1
:101880007047042808D14FF0E021096941F00401B4
:101890004FF0E022116107E04FF0E021096921F0EB
:1018A00004014FF0E0221161704700000000FA05CA
:1018B0000CED00E000E400E080E100E080FFFF1FAD
:1018C00010B50446CC48844208D10121042000F020
:1018D0002DFB0021042000F029FB46E0C74884428C
:1018E00008D10121082000F021FB0021082000F090
:1018F0001DFB3AE0C248844208D10121102000F0CB
:1019000015FB0021102000F011FB2EE0BD488442A1
:1019100008D10121202000F009FB0021202000F047
:1019200005FB22E0B848844208D10121402000F0A4
:10193000FDFA0021402000F0F9FA16E0B348844295
:1019400008D10121802000F0F1FA0021802000F070
:10195000EDFA0AE0AE48844207D10121801500F07B
:10196000E5FA0021A01500F0E1FA10BD10B5012143
:10197000084600F0DBFA0021012000F0D7FA10BD84
:101980002DE9F04102460025002600200023002416
:10199000002791F803C00CF00F0591F803C00CF07C
:1019A000100CBCF1000F03D091F802C04CEA050501
:1019B00091F800C0BCF1000F31D0146800202BE07A
:1019C0004FF0010C0CFA00F3B1F800C00CEA03066A
:1019D0009E4220D183004FF00F0C0CFA03F7BC435A
:1019E00005FA03FC4CEA040491F803C0BCF1280F8B
:1019F00006D14FF0010C0CFA00FCC2F814C00AE04A
:101A000091F803C0BCF1480F05D14FF0010C0CFA5E
:101A100000FCC2F810C0401C0828D1D31460B1F8F3
:101A200000C0BCF1FF0F34DD546800202EE000F14F
:101A3000080C4FF0010808FA0CF3B1F800C00CEAEA
:101A400003069E4221D183004FF00F0C0CFA03F7DE
:101A5000BC4305FA03FC4CEA040491F803C0BCF152
:101A6000280F05D100F1080C08FA0CF8C2F8148010
:101A700091F803C0BCF1480F07D100F1080C4FF0FA
:101A8000010808FA0CF8C2F81080401C0828CED3D0
:101A90005460BDE8F0814FF6FF7101800221817032
:101AA0000421C17070470246002093680B400BB1BF
:101AB000012000E0002070470146886880B270472E
:101AC00002460020D3680B400BB1012000E000204B
:101AD00070470146C86880B2704701617047416134
:101AE00070470AB1016100E041617047C160704711
:101AF0004FF480320A438261816182618269826926
:101B0000704702460020434B18684FF68073184018
:101B100040EA021008433F4B186070473E49C861D5
:101B20007047F0B50A46002300240021002500F08C
:101B30000046B6F1004F02D1364EF16901E0354E54
:101B40007168C0F3034583B200F44016B6F5401F38
:101B500008D121F070612F4E766826F070662D4F07
:101B60007E6012E000F48016B6F5801F06D10326D1
:101B700006FA05F4A14341F0706106E0460D360116
:101B800003FA06F6B14341F0706122B1460D360109
:101B900003FA06F6314300F00046B6F1004F02D1D9
:101BA0001C4EF16101E01B4E7160F0BD30B50022AA
:101BB0008B071C0F0F2303FA04F2164B08338C100B
:101BC00053F824309343134C08348D1044F82530D7
:101BD00023468C1053F824308C07240F00FA04F4A9
:101BE00023430C4C08348D1044F8253030BD0A498D
:101BF000DC3108607047000000080140000C014023
:101C0000001001400014014000180140001C014078
:101C1000002001400000014000002042DF48006831
:101C200040F00100DD49086008464068DC49084092
:101C3000DA49486008460068DA490840D749086030
:101C40000846006820F4802008600846406820F4B8
:101C5000FE0048604FF41F0088607047CF49096854
:101C600021F48031CD4A11601146096821F48021A8
:101C70001160B0F5803F03D0B0F5802F0ED106E0A3
:101C8000C649096841F48031C44A116007E0C3497C
:101C9000096841F4A021C14A116000E000BF00BF03
:101CA000704710B501460022002300204A11012A86
:101CB00002D1BA4C236806E0022A02D1B74C236A4B
:101CC00001E0B64C636A01F01F02012494401C40FD
:101CD0000CB1012000E0002010BD38B500200090BC
:101CE0000024002500BF3120FFF7DBFF05460098E8
:101CF000401C00900098B0F5A06F01D0002DF2D0EC
:101D00003120FFF7CEFF08B1012400E00024204677
:101D100038BD01460020A14A106820F0F80040EAD2
:101D2000C10010607047A04908607047024600205B
:101D30009A4B586820F47C1042EA01031843974BF1
:101D40005860704798490866704701460020934ADA
:101D5000506820F003000843506070478F48406887
:101D600000F00C007047014600208C4A506820F0BB
:101D7000F00008435060704701460020874A5068D1
:101D800020F4E06008435060704701460020834A19
:101D9000506820F4605040EAC1005060704729B19B
:101DA0007E4A527A02437D4B5A7204E07B4A527A51
:101DB00082437A4B5A7270477B49D831086070472A
:101DC00001460020754A506820F4404008435060A6
:101DD00070470021714A20321170704A82F8201039
:101DE000012802D004280AD104E001216B4A2032E4
:101DF000117005E00521694A2032117000E000BF32
:101E000000BF70476949086070476449096A014327
:101E1000624A11627047654944390860704730B5BD
:101E200000210022002400235C4D6D6805F00C01A8
:101E300021B1042905D0082923D105E05C4D0560B6
:101E400022E05B4D05601FE0544D6D6805F4701293
:101E5000524D6D6805F48034022505EB92421CB9A1
:101E6000544D554305600BE04C4D6D6805F400354D
:101E70001DB1504D5543056002E04D4D5543056081
:101E800002E04B4D056000BF00BF444D6D6805F09A
:101E9000F0010909484D6B5C0568DD4045603F4D28
:101EA0006D6805F4E061090A434D6B5C4568DD40EF
:101EB00085603A4D6D6805F46051C90A3E4D6B5C12
:101EC0004568DD40C560354D6D6805F44041890BBE
:101ED0003A4D6B5CC568B5FBF3F5056130BD29B1C2
:101EE0002E4A526902432D4B5A6104E02B4A526933
:101EF00082432A4B5A61704729B1284A92690243AA
:101F0000264B9A6104E0254A92698243234B9A61E9
:101F1000704729B1214AD2690243204BDA6104E0BB
:101F20001E4AD26982431D4BDA61704729B11B4AB0
:101F3000D2680243194BDA6004E0184AD26882433F
:101F4000164BDA60704729B1144A12690243134BE9
:101F50001A6104E0114A12698243104B1A617047FA
:101F600012494039086070470F49C86470470B49EF
:101F7000C87170470948406A40F08070074948625C
:101F8000704701460020054A92680A400AB10120C4
:101F900000E000207047014988727047001002403D
:101FA0000000FFF8FFFFF6FE0000424280044242BC
:101FB00000127A0000093D002800002038000020AF
:101FC00010B50446FB48844209D101218803FFF77C
:101FD000ADFF00214FF48040FFF7A8FF32E0F64844
:101FE000844209D101214804FFF7ADFF00214FF4DD
:101FF0000030FFF7A8FF25E0F048844209D1012115
:102000008804FFF7A0FF00214FF48020FFF79BFF1B
:1020100018E0EB48844209D10121C804FFF793FF7F
:1020200000214FF40020FFF78EFF0BE0E5488442CB
:1020300008D101210805FFF786FF00214FF4801029
:10204000FFF781FF10BD2DE9F04786B005460E462B
:102050000024A24600BFA1460027B08900B100BFFE
:102060002F462C8A4CF6FF700440F08804432C82E3
:10207000AC894EF6F3100440B08831890843718969
:1020800008430443AC81AC8A4FF6FF400440B0895A
:102090000443AC8201A8FFF7C2FEC648874202D1C2
:1020A000DDF810A001E0DDF80CA0A88900F40040E4
:1020B00040B10AEBCA0000EB0A1031684900B0FBDE
:1020C000F1F807E00AEBCA0000EB0A10316889005A
:1020D000B0FBF1F86420B8FBF0F0040120096421A2
:1020E00001FB1089A88900F4004040B1322000EBC8
:1020F000C900B0FBF1F000F00700044308E0322013
:1021000000EB09106421B0FBF1F000F00F00044374
:102110002C8106B0BDE8F0874FF416510160002114
:102120008180C18001810C21418100218181704722
:1021300010B502460020108A4FF2FF0318400B88AA
:102140004C8823438C882343CC8823431843108234
:1021500010BD0021018041808180C180704721B184
:10216000828942F40052828104E082894DF6FF7335
:102170001A4082817047F0B50346002400260025EE
:10218000002040F66A17B94200D100BF1846C1F3DB
:10219000421401F01F06012707FA06F5012C01D1B0
:1021A0000C3004E0022C01D1103000E014301AB1E0
:1021B00007682F43076002E00768AF430760F0BD80
:1021C0001AB1838A0B43838202E0838A8B43838222
:1021D0007047028A4FF6F0731A400282028A0A435D
:1021E0000282704782894FF2FF731A40828182898E
:1021F0000A438281704721B1828942F002028281C2
:1022000004E082894FF6FD731A4082817047028A8A
:102210004FF6DF731A400282028A0A430282704735
:1022200021B1028A42F48042028204E0028A4BF623
:10223000FF731A4002827047C1F308028280704720
:1022400001468888C0F308007047818941F0010188
:1022500081817047028BD2B20283028B42EA012253
:1022600002837047028B02F47F420283028B0A438F
:102270000283704721B1828A42F02002828204E008
:10228000828A4FF6DF731A408282704721B1828AB8
:1022900042F01002828204E0828A4FF6EF731A4005
:1022A0008282704721B1828A42F00802828204E071
:1022B000828A4FF6F7731A408282704721B1828971
:1022C00042F40042828103E08289C2F30E028281DD
:1022D000704721B1828A42F40062828204E0828ADD
:1022E0004FF2FF731A4082827047828A4FF6FB7367
:1022F0001A408282828A0A438282704721B1828A8E
:1023000042F00202828204E0828A4FF6FD731A4094
:102310008282704702460020B1F5007F00D100BFE5
:1023200013880B400BB1012000E00020704701F43E
:102330000072B2F5007F00D100BFCA43028070472F
:1023400070B50246002400230025002040F66A16DE
:10235000B14200D100BFC1F3421501F01F030126B5
:1023600006FA03F3012D02D19689334006E0022DCF
:1023700002D1168A334001E0968A33400C120126BE
:1023800006FA04F41688344013B10CB1012000E0C1
:10239000002070BD10B50022002340F66A14A1424F
:1023A00000D100BF0A1201249440A3B2DC43048090
:1023B00010BD0000003801400044004000480040CB
:1023C000004C00400050004010B58021944803F0BC
:1023D000EDFC00209349088010BD9248008808B9A0
:1023E000012070478F4800888F490988884203D1AF
:1023F00000208C490880F4E78A4800888A490880D0
:102400000120EEE72DE9F04104460D46C82620469E
:1024100003F0EBFB87B23A4621468448FFF76FF999
:102420000FE0FFF7DAFF48B929467D4803F0A7FB24
:1024300020B1FFF7C9FF0020BDE8F0810A20FFF7B7
:102440003AF83000A6F10101CEB2EAD10120F3E75B
:1024500030B589B004460D46FFF7B6FF2A4674A191
:1024600001A803F0B3F976A101A8FFF7CBFF20B9CB
:102470002A4621466D48FFF742F909B030BD70B5D4
:102480000546002400BFFFF7A8FF80B96DA164488E
:1024900003F075FB044654B13A21204603F053FB88
:1024A000044614B1641C204670BD0020FCE70520E2
:1024B000FFF701F8681E85B2002DE4DC0020F3E789
:1024C00008B501210420FFF717FD10208DF8030047
:1024D0008002ADF8000003208DF8020069465B48D9
:1024E000FFF74EFA00224FF480415848FFF7F9FAFF
:1024F000FA20FEF7E0FF012291035448FFF7F1FABA
:102500004FF4FA70FEF7D7FFFFF75EFF50A1524875
:10251000FFF70EF903E04FF4FA70FEF7CCFF4FA17E
:102520004FA0FFF76FFF0028F5D14FA14A48FFF7F2
:10253000FFF803E04FF4FA70FEF7BDFF42A14DA093
:10254000FFF760FF0028F5D103E04FF4FA70FEF7C3
:10255000B2FF3DA14AA0FFF755FF0028F5D14CA1DD
:102560003D48FFF7E5F803E04FF4FA70FEF7A3FFEC
:102570003AA14AA0FFF746FF0028F5D14BA1364803
:10258000FFF7D6F803E04FF4FA70FEF794FF33A19B
:102590004AA0FFF737FF0028F5D14CA12E48FFF7DE
:1025A000C7F803E04FF4FA70FEF785FF4AA14CA08C
:1025B000FFF728FF0028F5D152A12748FFF7B8F808
:1025C00003E04FF4FA70FEF776FF52A153A0FFF735
:1025D00019FF0028F5D15BA11F48FFF7A9F808BD36
:1025E00010B540F225511148FFF7AAFEB0B10D48D1
:1025F0000088802802D300200A4908800B48001D6B
:102600000088C1B2074802880088401C054B18802A
:102610000348815420210548FFF789FE10BD0000C2
:10262000500500203C0000203E00002000480040F3
:1026300041542B43495053454E443D25640D0A00F7
:102640003E0000004950442C0000000000100140F2
:10265000302E2041540D0A00003801404F4B00003D
:1026600041540D0A00000000312E205253540D0A2F
:102670000000000041542B5245530D0A0000000099
:1026800041542B434950434C4F53450D0A00000021
:10269000322E2043574D4F44450D0A0041542B43E1
:1026A000574D4F44453D310D0A000000332E204167
:1026B000542B4357444843500D0A000041542B43C8
:1026C00057444843503D312C310D0A00342E2043ED
:1026D000574A41500D0A0000474F5420495000000E
:1026E00041542B43574A41503D22332D3132302241
:1026F0002C226875616E6767756F6368656E220D61
:102700000A000000352E2043495053544152540DC5
:102710000A000000434F4E4E4543540041542B43A2
:10272000495053544152543D22544350222C226963
:10273000646F65722E746F70222C313838330D0A35
:1027400000000000362E20455350383236362049DE
:102750006E6974204F4B0D0A0000000070B50446EE
:102760000E460025206898B901202073304602F0FB
:10277000AFFF20602068E0B100206060A66003E049
:102780000020216848556D1CA068A842F8D810E0C8
:102790000220207303E00020216848556D1CA068CA
:1027A000A842F8D800206060A068B04201D20020A2
:1027B000206070BD10B50446207B012802D120683E
:1027C00002F0B5FF002020606060A060207310BDA3
:1027D0000246002301230DE002F07F000870D209B9
:1027E0002AB1087840F080000870491C01E01846C2
:1027F00070475B1C042BEFDD4FF0FF30F8E7F0B5BE
:1028000004460D462646012300201060002114E0F6
:10281000775C07F07F07106807FB03001060705CAF
:1028200000F0800008B9481CF0BDDB01B3F5001FC3
:1028300002D36FF00100F7E7491CA942E8DB4FF033
:10284000FF30F1E7F8B50446FF2720780511012D88
:1028500001DB0E2D01DD3846F8BD032D24D100200B
:1028600000906A460421601CFFF7C9FF2044461C03
:102870000098022803D3207800F0010008B1FF205F
:10288000EAE77078317840EA0120801C009988429C
:1028900001D9FF20E0E7F8A1B01C03F070F908B1FE
:1028A0000F2700E0032700E02F463846D4E72DE944
:1028B000FF4F83B082468B469146159C0025002031
:1028C00002900F270190484603F08FF90FFA80F825
:1028D000B9F1000F03D1012007B0BDE8F08F08F176
:1028E0000200384487B2109808B145F002051298EA
:1028F00078B145F00405129803F077F9C0B2029060
:10290000139803F072F901460298001D08443844F8
:1029100087B2119820B1012804D0022808D104E020
:1029200000BF07E045F00C0504E045F0140501E0A8
:102930000220D1E700BF149808B145F02405BAF190
:10294000000F02D0BBF1000F01D10320C4E745F016
:10295000C005504603F049F90646584603F045F9CC
:102960003044001D384487B239462046FFF7F6FE52
:10297000206808B90420AFE73946206803F016FA4A
:1029800010216268501C606020688154D4E90023E3
:10299000D118781FFFF71CFF00B2019001980028A2
:1029A00004DA2046FFF706FF052095E761680198E5
:1029B0000844606000216268501C60602068815497
:1029C00004216268501C6060206881544D21626857
:1029D000501C60602068815451216268501C606006
:1029E0002068815454216268501C606020688154C2
:1029F0006268501C60602068815404216268501C29
:102A00006060206881546168481C6060206845549B
:102A10000698010A6268501C60602068815406981C
:102A2000C1B26268501C606020688154C8F30721FD
:102A30006268501C6060206881546268501C60604D
:102A4000206800F80280D4E90012881842464946FE
:102A500003F083F860684044606005F00400B8B398
:102A60000026139808B986A01390129803F0BDF8B9
:102A700086B2310A6268501C6060206881546268C6
:102A8000501C606020688654D4E9001288183246D1
:102A9000129903F062F8606830446060139803F0A4
:102AA000A4F886B2310A6268501C606020688154C4
:102AB0006268501C606020688654D4E9001288184F
:102AC0003246139903F049F860683044606000BFF3
:102AD00005F08000C8B1504603F087F886B2310A8D
:102AE0006268501C6060206881546268501C60609D
:102AF00020688654D4E9001288183246514603F003
:102B00002CF860683044606000BF05F04000C8B138
:102B1000584603F06AF886B2310A6268501C606059
:102B2000206881546268501C606020688654D4E933
:102B3000001288183246594603F00FF86068304496
:102B4000606000BF0020C7E610B5044602212046A1
:102B5000FFF704FE206808B9012010BDE02162687B
:102B6000501C60602068815400216268501C6060C5
:102B7000206881540020F0E701464878022801D0FF
:102B800001207047887810B18878012801D1C87871
:102B9000F7E7FF20F5E72DE9FF4F83B0834617469F
:102BA0009946139C00250026002002900190804643
:102BB000BBF1000F03D1012007B0BDE8F08F002664
:102BC0000AE00498805D232803D00498805D2B28B8
:102BD00001D10220F0E7761C0498805D0028F0D136
:102BE00048F03008119808B148F0010806EB0900D8
:102BF000851C109820B1012804D002280AD105E0D4
:102C000000BF09E048F00208AD1C05E048F00408E8
:102C1000AD1C01E00320CFE700BF67B3387802287E
:102C200021D14FF0000A00BF50460AF1010A385C7A
:102C30007D28F9D1AAF1030A0AF10700029002984F
:102C4000A9EB000AE81CA0EB0A012046FFF786FD6D
:102C5000206808B90420AFE7EA1CA2EB0A0120684B
:102C600003F0A4F81FE0691D2046FFF777FD2068F8
:102C700040B90420A0E70AE02463726571000000F7
:102C800000000000691D206803F090F80BE0691D4A
:102C90002046FFF763FD206808B904208CE7691D12
:102CA000206803F083F86168481C6060206800F8C1
:102CB0000180D4E9000281182846FFF789FD0190C0
:102CC0000198002804DA2046FFF774FD052073E719
:102CD0006168019808446060C6F307216268501C6F
:102CE0006060206881546268501C6060206886546F
:102CF000D4E9001288183246049902F02EFF606869
:102D000030446060109860B14FEA1B216268501C2B
:102D10006060206881546268501C6060206800F820
:102D200002B0C7B1387802280BD1D4E90012881854
:102D30003946029A02F0C3FF616802980844606055
:102D400009E0D4E9001288184A46394602F0B7FF74
:102D500060684844606000202EE72DE9FF41074687
:102D60000D4690461E460A9C01200021CDE9000137
:102D7000EB1C0A46FAA1CDE902040A20FFF70BFF7B
:102D800088B96168481C606020684654C5F3072113
:102D90006268501C6060206881546268501C6060EA
:102DA0002068855403E0012004B0BDE8F0810020D4
:102DB000FAE72DE9F04F85B080460D469146012097
:102DC00004900027002600244FF0000A404602F03D
:102DD0000CFF00F10D0B584602F07AFC07461FB9B4
:102DE000049805B0BDE8F08F4246DEA1384602F0F7
:102DF000EDFC384602F0F9FEC6B2F01D00EB050A04
:102E0000AAEB050002F064FC044624B9384602F03F
:102E10008EFC0498E5E70220207000206070A67008
:102E200032463946E01C02F04AFF290EF01C2154BC
:102E3000C5F30741301D2154C5F30721701D2154EE
:102E4000B01D255401200021CDE900015346224642
:102E5000C3A1CDE902090A20FFF79DFE08B90020B1
:102E60000490384602F063FC204602F060FC0498AF
:102E7000B7E72DE9F84380460C4615461E462F213C
:102E800008F1060002F05FFE07460020009017B927
:102E90000120BDE8F8837F1C6A46042108F1010087
:102EA000FFF7ADFC252002F013FC2060206808B974
:102EB0000220EEE72521206802F078FF242239461F
:102EC000206802F0FCFE243700982C3830803188CE
:102ED000481C02F0FDFB2860286820B9206802F039
:102EE00026FC0320D5E73288511C286802F05EFFDB
:102EF00032883946286802F0E2FE0020C9E72DE951
:102F0000FF5F07460D469046384602F06EFE86B2D9
:102F1000284602F06AFE1FFA80FA4FF00009F01D01
:102F200002F0D6FB04461CB9012004B0BDE8F09FB6
:102F3000F11D204602F03AFF8EA0016821608088D2
:102F4000A08032463946204602F007FE284602F0AD
:102F50004CFE83460120002100915B462A46CDE9C4
:102F60000208019121460A20FFF715FE10B94FF023
:102F7000000901E04FF00109204602F0D8FB484665
:102F8000D3E72DE9FF5F8046174699460E9C002641
:102F9000B246B3460025B8F1000F03D1012004B0BA
:102FA000BDE8F09F0BE057F8250008B90220F6E7CE
:102FB00057F8250002F019FE0644681CC5B24D45BD
:102FC000F1DB09EB4900801C00EB060A0AF1050160
:102FD0002046FFF7C3FB206808B90320DFE7822102
:102FE0006268501C606020688154D4E90002811836
:102FF0005046FFF7EDFB0FFA80FBBBF1000F04DA40
:103000002046FFF7D7FB0420C9E76068584460609A
:103010004FEA18216268501C606020688154626821
:10302000501C6060206800F80280002524E057F8FA
:10303000250002F0DAFD0646C6F307216268501C3F
:103040006060206881546268501C6060206886540B
:10305000D4E90023D01857F82510324602F07DFD40
:103060006068304460600198C1B26268501C606062
:1030700020688154681CC5B24D45D8DB00208EE71E
:103080000146FF208A78A2B9CA78142A11D10A7998
:1030900032B1012A05D0022A04D0802A06D103E0E9
:1030A00000BF00BF002003E0012001E0022000BFBC
:1030B00000BF70472DE9F05F80460F4691461C46E1
:1030C0000026B246B3460025B8F1000F02D1012018
:1030D000BDE8F09F0BE057F8250008B90220F7E79C
:1030E00057F8250002F081FD0644681CC5B24D4525
:1030F000F1DB022000EB490000EB060A0AF10501B2
:103100002046FFF72BFB206808B90320E0E7A22147
:103110006268501C606020688154D4E90002811804
:103120005046FFF755FB0FFA80FBBBF1000F04DAA6
:103130002046FFF73FFB0420CAE760685844606000
:103140004FEA18216268501C6060206881546268F0
:10315000501C6060206800F8028000252CE0000010
:10316000246470007B2264735F6964223A222573B1
:10317000227D000024637273702F000057F8250031
:1031800002F033FD0646C6F307216268501C6060FA
:10319000206881546268501C606020688654D4E9BD
:1031A0000023D01857F82510324602F0D6FC60688C
:1031B00030446060681CC5B24D45DFDB002087E706
:1031C000014601208A781AB9CA781E2A00D1002047
:1031D00070472DE9FC5F81460D4614461E46DDE929
:1031E0000C8B99F8000000F00F0A002001900AF003
:1031F00008000090CAF341008BF8000001AA0421E6
:1032000009F10100FFF7FBFA4844471C0198022826
:1032100002D30AF0010010B1FF20BDE8FC9F7878CE
:10322000397840EA012020802088801C019988425A
:1032300001D9FF20F1E7AFF2C051B81C02F09FFCAA
:1032400008B10F20E9E79BF8000020B101283DD02C
:10325000022877D13BE0009808B1FF20DDE7218804
:10326000481C02F035FA2860286808B9FF20D4E726
:103270002288511C286802F099FD2288B91C286810
:1032800002F01DFD0198801E2188401AA8F8000058
:10329000B8F80010481C02F01BFA3060306820B902
:1032A000286802F044FAFF20B7E7B8F80020511C64
:1032B000306802F07BFDB8F80020B4F800C0BB1CF9
:1032C0000CEB0301306802F0FAFC4FE000BF2088ED
:1032D000801C0199884201D9FF209EE72088C01CEC
:1032E000395C2088801C385C41EA00210E980180FE
:1032F0000E9808B9FF2090E72188481C02F0E8F9F1
:103300002860286808B9FF2087E72288511C2868B0
:1033100002F04CFD2288B91C286802F0D0FC01980C
:10332000001F2188401AA8F80000B8F80010481CB7
:1033300002F0CEF93060306828B9286802F0F7F959
:10334000FF206AE710E0B8F80020511C306802F056
:103350002DFDB8F80020B4F800C03B1D0CEB0301B4
:10336000306802F0ACFC01E0FF2056E700BF2B21E3
:10337000284602F0E8FB20B92321284602F0E3FBAF
:1033800008B1FF2049E7002047E770B505460C4625
:1033900004212046FFF7E2F9206808B9012070BD3A
:1033A00040216268501C606020688154022162687C
:1033B000501C60602068815429126268501C606053
:1033C000206881546268501C606020688554002029
:1033D000E5E701464878022801D001207047887847
:1033E00020B9C8780A2801D10020F7E70120F5E7C5
:1033F00070B505460C4604212046FFF7AFF920685A
:1034000008B9012070BD50216268501C60602068BE
:10341000815402216268501C606020688154291226
:103420006268501C6060206881546268501C606053
:10343000206885540020E5E701464878022801D03D
:1034400001207047887820B9C8780A2801D1002067
:10345000F7E70120F5E770B505460C460421204644
:10346000FFF77CF9206808B9012070BD622162680D
:10347000501C60602068815402216268501C6060AA
:103480002068815429126268501C60602068815451
:103490006268501C6060206885540020E5E70246A1
:1034A0005078022801D0012070479078B0EB112F9E
:1034B00005D1D078CBB2984201D10020F4E70120A9
:1034C000F2E770B505460C4604212046FFF746F9A1
:1034D000206808B9012070BD70216268501C6060CE
:1034E0002068815402216268501C60602068815409
:1034F00029126268501C6060206881546268501C08
:103500006060206885540020E5E70146487802287D
:1035100001D001207047887820B9C8780A2801D1E5
:103520000020F7E70120F5E710B504460221204608
:10353000FFF714F9206808B9012010BDC0216268A6
:10354000501C60602068815400216268501C6060DB
:10355000206881540020F0E730B58BB00020079040
:10356000089009900A900125D5A0D7A3D8A2DAA186
:103570000090E548FEF7DCF807A8002102910391CE
:10358000CDE9041000912B02CDA20191CEA1D0A0D3
:10359000FFF78DF9002842D1089A91B20798FEF7FB
:1035A00057FFFA20FEF76BFF0446002C33D020466D
:1035B000FFF748F902282ED12046FFF7DDFA06284A
:1035C00023D2DFE800F003090E13181DCFA1CE4867
:1035D000FEF7AEF800251DE0D2A1CB48FEF7A8F813
:1035E00018E0D9A1C848FEF7A3F813E0E0A1C64847
:1035F000FEF79EF80EE0E7A1C348FEF799F809E050
:10360000EFA1C148FEF794F804E0F9A1BE48FEF727
:103610008FF800BF00BF07A8FFF7CCF803E0FBA1BD
:10362000B948FEF785F828460BB030BD70B586B0B6
:1036300004460D4600260020029003900490059059
:1036400007E054F82620FAA1AF48FEF771F8701C85
:10365000C6B2AE42F5DB02A82B46224600210090FE
:103660001420FFF78EFC38B9039A91B20298FEF746
:10367000EFFE02A8FFF79EF806B070BD70B588B0E7
:1036800005460C46002004900590069007902346BE
:103690002A46EDA19C48FEF74BF8204602F0A5FA19
:1036A000064604A80121002200923346CDE90121FB
:1036B0000390224629460A20FFF76DFA38B9059A89
:1036C00091B20498FEF7C4FE04A8FFF773F808B09F
:1036D00070BD2DE9F04790B0814600200C900D9010
:1036E0000E900F900B900A9009900890002607907A
:1036F0000025002482464846FFF7A4F80646F01E3F
:103700000D2875D2DFE800F01C6B758FABD0B4D0FC
:10371000C2D0D0D0070008AB0BAA0AA94846FFF7D1
:10372000A8FB05465DB9BDF820000090CEA1764803
:10373000DDE90A23FDF7FCFF0CA8FFF73BF8B6E034
:10374000D24807A908AA0BABCDE90021029009AA2B
:103750000AA94846FFF73DFD0546002D3ED1BDF8BC
:1037600020000B99CDE90010BDF82430C8A16648AF
:103770000A9AFDF7DDFF0B9801F0CEF8074627B94E
:10378000D2A16148FDF7D4FF25E0D4A1384601F06D
:10379000C9FC8046D8F8140078B10020D1490860EF
:1037A0000120D149C1F8A0014FF4FA70FDF783FE62
:1037B0000020CC490C3108600DE00120C9490860A7
:1037C000C949C1F8A0014FF4FA70FDF774FE00205A
:1037D000C4490C310860384600F09CFA67E048465E
:1037E000FFF7F7FD18B9C1A14748FDF7A1FF5EE05B
:1037F0005AE04846FFF720FEA0B9C4A14248FDF7B1
:1038000097FF0CA90A20FFF726FE58B9C5A13E482C
:10381000FDF78EFF0D9A91B20C98FEF719FE0CA8D9
:10382000FEF7C8FF43E0994801884846FFF737FE96
:10383000A0B9C2A13448FDF77BFF0CA90A20FFF70D
:1038400040FE58B9C3A13048FDF772FF0D9A91B2FE
:103850000C98FEF7FDFD0CA8FEF7ACFF27E04846EC
:10386000FFF753FE18B9C2A12748FDF761FF1EE01C
:103870004846FFF705FC20B9C3A12348FDF758FFD0
:1038800003E0C8A12048FDF753FF10E04846FFF7CA
:1038900097FC20B9CAA11C48FDF74AFF03E0CFA15D
:1038A0001948FDF745FF02E04FF0FF3500BF00BFAC
:1038B000FEF78AFD681C10B910B0BDE8F0879DE1E5
:1038C00035363136383339007465737400000000C2
:1038D00037373234370000004F6E654E65745F44F1
:1038E00065764C696E6B0D0A50524F49443A20255B
:1038F000732C09415549463A2025732C09444556F5
:1039000049443A25730D0A00003801405469707328
:103910003A09B7FECEF1C6F7C1ACBDD3B3C9B9A65B
:103920000D0A00005741524E3A09B7FECEF1C6F7D4
:10393000C1ACBDD3CAA7B0DCA3BAD0ADD2E9B4ED57
:10394000CEF30D0A000000005741524E3A09B7FE6F
:10395000CEF1C6F7C1ACBDD3CAA7B0DCA3BAB7C716
:10396000B7A8B5C4636C69656E7469640D0A00001C
:103970005741524E3A09B7FECEF1C6F7C1ACBDD39E
:10398000CAA7B0DCA3BAB7FECEF1C6F7CAA7B0DCAF
:103990000D0A00005741524E3A09B7FECEF1C6F764
:1039A000C1ACBDD3CAA7B0DCA3BAD3C3BBA7C3FB0A
:1039B000BBF2C3DCC2EBB4EDCEF30D0A0000000095
:1039C0005741524E3A09B7FECEF1C6F7C1ACBDD34E
:1039D000CAA7B0DCA3BAB7C7B7A8C1B4BDD328B1D2
:1039E000C8C8E7746F6B656EB7C7B7A8290D0A0022
:1039F0004552523A09C1ACBDD3CAA7B0DCA3BACE76
:103A0000B4D6AAB4EDCEF30D0A0000005741524ED1
:103A10003A094D5154545F5061636B6574436F6E46
:103A20006E656374204661696C65640D0A00000070
:103A300053756273637269626520546F7069633A8B
:103A40002025730D0A0000005075626C69736820B0
:103A5000546F7069633A2025732C204D73673A20A8
:103A600025730D0A00000000636D6469643A202527
:103A7000732C207265713A2025732C207265715F5A
:103A80006C656E3A2025640D0A000000400000209D
:103A9000746F7069633A2025732C20746F706963AA
:103AA0005F6C656E3A2025642C207061796C6F61C3
:103AB000643A2025732C207061796C6F61645F6CAF
:103AC000656E3A2025640D0A000000006A736F6E6F
:103AD000BDE2CEF6B4EDCEF3000000004C45445FED
:103AE0005357000094812142008021425469707331
:103AF0003A094D515454205075626C6973682053D3
:103B0000656E64204F4B0D0A00000000546970730D
:103B10003A09526576205075626C69736852656324
:103B20000D0A0000546970733A0953656E642050A1
:103B300075626C69736852656C0D0A005469707324
:103B40003A09526576205075626C69736852656CEB
:103B50000D0A0000546970733A0953656E64205071
:103B600075626C697368436F6D700D0A0000000028
:103B7000546970733A09526576205075626C6973A6
:103B800068436F6D700D0A00546970733A094D51A6
:103B9000545420537562736372696265204F4B0DF4
:103BA0000A000000546970733A094D51545420536F
:103BB0007562736372696265204572720D0A000056
:103BC000546970733A094D51545420556E537562BF
:103BD000736372696265204F4B0D0A0054697073FC
:103BE0003A094D51545420556E537562736372698E
:103BF0006265204572720D0A000000007D210B985D
:103C000001F0A1FF0446A4B1681C90B1641C06E059
:103C100014F8012B50460AF1010A04A90A5420782D
:103C2000302802DB20783928F2DD04A801F07EFF7D
:103C300082460F2E01D0032E05D10A9801F077FDA0
:103C40000B9801F074FD00BF10B0BDE8F0870000D4
:103C5000FE480068704770B504460D462CB9AC426A
:103C600001D0012070BD0020FCE70DB90120F9E76B
:103C700005E0207808B90020F4E7641C6D1C20786A
:103C800001F07CFD0646287801F078FD8642F0D0F0
:103C9000207801F073FD0646287801F06FFD301A98
:103CA000E0E770B50446204601F09FFF451C28461A
:103CB000E74909688847060000D170BD2A462146B9
:103CC000304601F0FCFF3046F7E730B9E149E04A01
:103CD0001160E149E14A11607047016809B101686A
:103CE00000E0DC49DA4A1160416809B1416800E04E
:103CF000D949DA4A116000BFEEE710B52820D4494F
:103D00000968884704461CB12821204602F070F853
:103D1000204610BD70B5044622E02568A08900F455
:103D2000807020B9A06810B1A068FFF7F3FFA089E8
:103D300000F4807028B9206918B1C8492069096861
:103D40008847A08900F4007028B9206A18B1C349D7
:103D5000206A096888472046C049096888472C4678
:103D6000002CDAD170BD2DE9F04F8BB083468A4626
:103D70000020044605460026B94F002188468946A2
:103D80000990012008909AF800002D2802D1B54F23
:103D90000AF1010A9AF80000302801D10AF1010A5B
:103DA0009AF80000312822DB9AF8000039281EDC3E
:103DB00000BF1AF8011BA1F1300004F058FB0022EB
:103DC000A94BCDE906012046294604F0A3FBCDE925
:103DD0000401DDE9062304F0CBF804460D469AF809
:103DE0000000302803DB9AF800003928E1DD9AF85A
:103DF00000002E2830D19AF8010030282CDB9AF8E8
:103E00000100392828DC0AF1010A00BF1AF8011B59
:103E1000A1F1300004F02BFB0022934BCDE9060109
:103E20002046294604F076FBCDE90401DDE90623AE
:103E300004F09EF804460D460022894B4046494650
:103E400004F08EFD804689469AF80000302803DB96
:103E50009AF800003928D9DD9AF80000652803D0C7
:103E60009AF80000452823D10AF1010A9AF80000C7
:103E70002B2802D10AF1010A08E09AF800002D2847
:103E800004D14FF0FF3008900AF1010A08E01AF857
:103E9000010B3038099901EB810100EB41000990D9
:103EA0009AF80000302803DB9AF800003928EEDD8C
:103EB000DDE9082101FB02F004F0D9FA42464B4645
:103EC000CDE9000104F054F802460B46CDE90201A9
:103ED0000020654903F01EFB22462B46CDE9060172
:103EE0003046394604F016FBCDE90401DDE906232E
:103EF00004F010FB04460D46CBE906452046294652
:103F000004F086FACBF814000320CBF80C005046DE
:103F10000BB0BDE8F08F0146491E41EA610141EA5C
:103F2000A10141EA211141EA212141EA2141481C34
:103F300070472DE9F04104460E460CB1206810B9D7
:103F40000020BDE8F081A06806446068B04203DB51
:103F5000A16820680844F4E73046FFF7DCFF074615
:103F600038463B490968884705463DB93B492068C2
:103F700009688847002060602060E2E725B1284694
:103F8000D4E9001201F09BFE344920680968884793
:103F900067602560A0682844D3E770B504460CB17B
:103FA000206808B9002070BDA1682068451828461F
:103FB00001F01BFEA1680844F5E72DE9FC478246A5
:103FC0000E464FF00009DAE9064500221346204666
:103FD000294604F0E1F913D12EB102213046FFF752
:103FE000A8FF814604E002201949096888478146F4
:103FF000B9F1000F03D01DA00088A9F800009FE0D0
:10400000DAF8140004F033FA074622462B4604F08F
:10401000A7FC21F000410022154BCDE9000104F07E
:104020003DFA3ED8134A144B2046294604F036FA8E
:1040300037D80022114B2046294604F069FB30D8BE
:1040400006B315213046FFF774FF19E04400002045
:1040500048000020D15600082F5700084C000020CF
:104060000000F03F0000F0BF0000244030000000DE
:104070000000B03C0000C0FFFFFFDF410000E0C1D6
:10408000814604E01520FA49096888478146B9F15C
:10409000000F55D0F7A14846DAF8142001F096FB3E
:1040A0004EE02EB140213046FFF743FF814604E049
:1040B0004020EF49096888478146B9F1000F3FD099
:1040C0002046294603F0B8F9074622462B4604F05D
:1040D00047FC21F000410022E74BCDE9000104F04C
:1040E000DDF90FD825F000412746E44AE44B384675
:1040F00004F0D4F906D222462B46E2A1484601F04C
:1041000065FB1DE025F000412746E04AE04B3846BC
:1041100004F0C4F907D325F000410022DD4B3846F6
:1041200004F0F6FA06D222462B46DBA1484601F0FF
:104130004DFB05E022462B46D8A1484601F046FB40
:104140004846BDE8FC87014600220878302806DB97
:104150000878392803DC08783038024415E00878FC
:10416000412806DB0878462803DC08783738024403
:104170000BE00878612806DB0878662803DC0878FD
:104180005738024401E0002070471201491C0878AA
:10419000302806DB0878392803DC087830380244F8
:1041A00015E00878412806DB0878462803DC087803
:1041B000373802440BE00878612806DB0878662867
:1041C00003DC08785738024401E00020DCE71201E4
:1041D000491C0878302806DB0878392803DC087881
:1041E0003038024415E00878412806DB0878462874
:1041F00003DC0878373802440BE00878612806DBD6
:104200000878662803DC08785738024401E000206B
:10421000BAE71201491C0878302806DB08783928EB
:1042200003DC08783038024415E00878412806DBC2
:104230000878462803DC0878373802440BE0087811
:10424000612806DB0878662803DC087857380244C2
:1042500001E0002098E7104696E72DE9F05F8346DD
:10426000884608F10104002798F80000222805D0AC
:104270008B48C0F800800020BDE8F09F04E014F8EF
:10428000011B5C2900D1641C2078222804D02078EE
:1042900010B1781C0700F2D1781C7549096888476D
:1042A0008146B9F1000F01D10020E5E708F10104D2
:1042B0004D469EE020785C2804D014F8010B05F8E8
:1042C000010B96E0641C2078722818D006DC622866
:1042D00009D066280BD06E287ED10CE0742812D04D
:1042E0007528F9D113E0082005F8010B7FE00C20B8
:1042F00005F8010B7BE00A2005F8010B77E00D20A3
:1043000005F8010B73E0092005F8010B6FE0601C54
:10431000FFF719FF0646241DB6F55C4F02D3B6F52C
:10432000604F00D306B962E0B6F5584F1CD3B6F51E
:104330005C4F19D260785C2802D1A078752800D033
:1043400055E0E01CFFF7FFFE8246A41DBAF55C4F66
:1043500002D3BAF5604F00D349E0C6F309015046D5
:1043600061F39F2000F580360427802E01D20127BB
:1043700008E0B6F5006F01D2022703E0B6F5803FF2
:1043800000D203273D44012F20D0022F15D0032F48
:104390000AD0042F24D106F0BF0040F08001681E2F
:1043A00005460170B60900BF06F0BF0040F080016D
:1043B000681E05460170B60900BF06F0BF0040F058
:1043C0008001681E05460170B60900BF3548C05D12
:1043D0003043C1B2681E00E005E00546017000BF31
:1043E00000BF3D4403E0207805F8010B00BF00BF8B
:1043F000641C2078222803D0207800287FF45AAF4C
:10440000002028702078222800D1641CCBF810905E
:104410000420CBF80C0020462EE72DE9F05F804603
:1044200089460027BB46454611E02878002802DD72
:104430002878202805DB2878222802D028785C28D4
:1044400001D1012000E0002040EA0B0B6D1C287810
:104450000028EAD1BBF1000F3ED1A5EB0807B9F166
:10446000000F21D0F91C4846FFF763FD064620E007
:1044700048000020256400000000B03C44F3C2E482
:10448000E4E9634C252E3066000000008DEDB5A0F8
:10449000F7C6B03E65CDCD4125650000256600001C
:1044A00044000020F2A40008F81CFD490968884770
:1044B000064616B90020BDE8F09F3446222004F8D5
:1044C000010B4146204601F06CFB2220E055002103
:1044D000781C21543046EEE7B8F1000F16D1B9F13F
:1044E000000F05D003214846FFF723FD064604E0F0
:1044F0000320EB490968884706460EB90020DAE731
:10450000E8A1304601F04DFB3046D4E745460BE0CC
:104510005146E5A001F017FB08B17F1C03E0BAF19A
:10452000200F00DA7F1D6D1C95F800A0BAF1000F76
:1045300002D0781C0700EBD1B9F1000F05D0F91CAF
:104540004846FFF7F6FC064604E0F81CD449096823
:10455000884706460EB90020ADE73446454622207E
:1045600004F8010B47E028781F280ADD2878222864
:1045700007D028785C2804D015F8010B04F8010B4B
:1045800039E05C2004F8010B15F8011B8A460C2960
:1045900019D006DC082912D0092920D00A2922D1F5
:1045A00015E00D2917D0222905D05C291BD15C20EC
:1045B00004F8010B1EE0222004F8010B1AE062202F
:1045C00004F8010B16E0662004F8010B12E06E20DF
:1045D00004F8010B0EE0722004F8010B0AE07420CD
:1045E00004F8010B06E05246B1A1204601F0EEF8B6
:1045F000641D00BF00BF28780028B4D1222004F831
:10460000010B002004F8010B304654E770B5044656
:104610000D4629462069FFF700FF70BD00E0401CF1
:1046200020B1017811B101782029F8DD70472DE91A
:10463000F04706460C4620787B2804D09E4804604C
:104640000020BDE8F0870620F060601CFFF7E6FF61
:10465000044620787D2801D1601CF2E7FFF74DFB6E
:104660000546B060B06808B90020EAE72046FFF7C9
:10467000D5FF804641462846FFF7EFFD0746FFF786
:10468000CDFF04460CB90020DBE728692862002032
:10469000286120783A2803D0874804600020D0E7BA
:1046A000601CFFF7BBFF80464146284600F099F8A2
:1046B0000746FFF7B3FF04460CB90020C1E731E01D
:1046C000FFF71BFB070000D1BBE72F607D603D4675
:1046D000601CFFF7A3FF814649462846FFF7BDFD52
:1046E0008046FFF79BFF04460CB90020A9E7286924
:1046F00028620020286120783A2803D06E480460A0
:1047000000209EE7601CFFF789FF81464946284646
:1047100000F067F88046FFF781FF04460CB90020DF
:104720008FE700BF20782C28CAD020787D2801D1BF
:10473000601C86E760480460002082E72DE9F047AE
:1047400005460C4620785B2804D05B4804600020B6
:10475000BDE8F0870520E860601CFFF75FFF0446B6
:1047600020785D2801D1601CF2E7FFF7C6FA064603
:10477000A860A86808B90020EAE72046FFF74EFFC6
:1047800080464146304600F02CF80746FFF746FFCA
:1047900004460CB90020DBE717E0FFF7AEFA07008C
:1047A00000D1D5E737607E603E46601CFFF736FFDC
:1047B00081464946304600F014F88046FFF72EFF48
:1047C00004460CB90020C3E700BF20782C28E4D0B1
:1047D00020785D2801D1601CBAE7374804600020CA
:1047E000B6E770B505460C460CB9002070BD042232
:1047F00032A1204601F018FA18B90220E860201D05
:10480000F4E705222FA1204601F00EFA18B9002086
:10481000E860601DEAE704222CA1204601F004FABA
:1048200020B90120E8606861201DDFE72078222898
:1048300004D121462846FFF710FDD7E720782D2820
:1048400005D02078302807DB2078392804DC214681
:104850002846FFF788FAC9E720785B2804D121466B
:104860002846FFF76BFFC1E720787B2804D121465B
:104870002846FFF7DCFEB9E70F4804600020B5E7E3
:104880002DE9F04780460D4616460024FFF735FA1D
:104890000746002008490860E7B9BDE8F087000036
:1048A0004800002022220000225C080C0A0D0900AA
:1048B0007525303478000000440000206E756C6C63
:1048C0000000000066616C7365000000747275651D
:1048D000000000004046FFF7A1FE814649463846E9
:1048E000FFF77FFF04462CB93846FFF713FA002084
:1048F000BDE8F08766B12046FFF790FE04462078B9
:1049000030B13846FFF706FAFE4804600020EFE7B2
:1049100005B12C603846EBE710B50446002211467D
:104920002046FFF7ADFF10BD2DE9FF4F89B0884647
:1049300016461F4600200890079006904FF0070A81
:1049400000250998D0F8089000200290019000906E
:1049500004E00298401C0290D9F80090B9F1000FD1
:10496000F7D10298002835D157B116B108F10400EB
:1049700000E0032001463846FFF7DBFA069009E025
:1049800016B108F1040100E003210846DE49096878
:1049900088470690069818B900200DB0BDE8F08F42
:1049A000069C7B2004F8010B66B10A2004F8010B79
:1049B000002503E0092004F8010B6D1CA8F101009B
:1049C000A842F7DC7D2004F8010B002004F8010B5D
:1049D0000698E2E7002F77D0BD680EB1022000E014
:1049E000012082460AF101013846FFF7A2FA044687
:1049F0000CB90020D1E77B2004F8010B16B10A2086
:104A000004F8010B00202070B8685044B860099881
:104A1000D0F8089008F1010868E0B6B14146384680
:104A2000FFF787FA04460CB90020B6E70020039090
:104A300005E0092004F8010B0398401C039003983B
:104A40004045F6DBB8684044B8603946D9F82000E4
:104A5000FFF7E3FC3846FFF7A0FAB8600EB102207A
:104A600000E00120824651463846FFF762FA0446CC
:104A70000CB9002091E73A2004F8010B16B1092087
:104A800004F8010BB8685044B8603B4632464146D2
:104A9000484600F078FA3846FFF77FFAB8600EB162
:104AA000012000E00020D9F8001009B1012100E048
:104AB000002100EB010A0AF101013846FFF739FA3B
:104AC000044614B9002068E734E0D9F8000010B1BA
:104AD0002C2004F8010B16B10A2004F8010B002069
:104AE0002070B8685044B860D9F80090B9F1000F50
:104AF00093D116B108F1010000E0022001463846CA
:104B0000FFF717FA04460CB9002046E74EB100251E
:104B100003E0092004F8010B6D1CA8F10100A84274
:104B2000F7DC7D2004F8010B002020703868284451
:104B3000069005E102998800734909688847089042
:104B4000089808B9002028E7029988006E4909688A
:104B500088470790079828B96C49089809688847DA
:104B600000201AE702988100089801F041F90298A4
:104B70008100079801F03CF90998D0F8089008F1F5
:104B8000010806B1C2442EE00021D9F82000FFF749
:104B900044FC0490079941F8250000233246414621
:104BA000484600F0F0F929466D1C0590089A42F835
:104BB0002100049898B1059888B1059801F015F87E
:104BC0008346049801F011F80BEB0001891C16B123
:104BD00008F1020000E000200844824401E00120C6
:104BE0000190D9F80090B9F1000FCDD1019820B90A
:104BF00050464549096888470690069808B901203B
:104C00000190019818B3002514E0079850F825008A
:104C100028B1079951F825003C4909688847089848
:104C200050F8250028B1089951F82500374909683E
:104C300088476D1C02988542E7DB3449079809686C
:104C4000884732490898096888470020A5E67B21F3
:104C5000069801700698441C16B10A2004F8010B4E
:104C600000202070002548E05EB10020039005E0A0
:104C7000092004F8010B0398401C03900398404559
:104C8000F6DB079951F8250000F0AFFF0090079878
:104C900050F825102046009A01F011F800980444BD
:104CA0003A2004F8010B16B1092004F8010B08980A
:104CB00050F82510204600F074FF089951F825009F
:104CC00000F093FF04440298401EA84202D02C201A
:104CD00004F8010B16B10A2004F8010B0020207023
:104CE000079951F82500094909688847089951F83A
:104CF00025000649096888476D1C02988542B3DB88
:104D0000024905E044000020480000204C0000203B
:104D1000079809688847F7490898096888474EB195
:104D2000002503E0092004F8010B6D1CA8F1010027
:104D3000A842F7DC7D2004F8010B002004F8010BE9
:104D400006982AE62DE9FF4F85B092461E464FF0A1
:104D5000000B052003900598D0F80880D94600255F
:104D600000200290019003E009F10109D8F80080C9
:104D7000B8F1000FF8D1B9F1000F16D12EB103210F
:104D80003046FFF7D6F8834604E00320DA49096885
:104D900088478346BBF1000F03D0D8A1584600F0E6
:104DA00000FF584609B0BDE8F08F002E57D0B56817
:104DB00001213046FFF7BDF804460CB90020F1E7A9
:104DC0005B202070B068401CB0600598D0F8088067
:104DD0002EE0334652460699491C404600F0D3F86F
:104DE0003046FFF7DAF8B060D8F80000F0B1BAF159
:104DF000000F01D0022000E0012003900399491C1C
:104E00003046FFF796F804460CB90020CAE72C207C
:104E100004F8010BBAF1000F02D0202004F8010BB6
:104E200000202070B16803980844B060D8F8008072
:104E3000B8F1000F02D002980028CAD002213046F3
:104E4000FFF777F804460CB90020ABE75D2004F8C3
:104E5000010B00202070306800EB050B91E04FEA59
:104E60008900A5490968884707460FB9002099E7D6
:104E70004FEA8901384600F0BBFF0598D0F808805A
:104E800021E0002352460699491C404600F07BF879
:104E9000049029466D1C049847F82100049870B1CD
:104EA000049800F0A2FE801CBAF1000F01D001218D
:104EB00000E00021014403980844039001E0012030
:104EC0000290D8F80080B8F1000F02D002980028B4
:104ED000D7D0029820B98849039809688847834643
:104EE000BBF1000F01D101200290029890B1002582
:104EF00008E057F8250020B157F825007D490968DA
:104F000088476D1C4D45F4DB38467A490968884767
:104F1000002047E75B208BF800000BF10104002024
:104F20002070002521E057F8250000F05EFE01907A
:104F300057F825102046019A00F0C1FE019804445C
:104F4000A9F10100A8420AD02C2004F8010BBAF103
:104F5000000F02D0202004F8010B0020207057F829
:104F600025006449096888476D1C4D45DBDB3846E0
:104F70006049096888475D2004F8010B002004F8A7
:104F8000010B58460EE72DE9F04104460F469046C6
:104F90001D46002614B90020BDE8F081002D49D03F
:104FA000207B072845D2DFE800F0101C04282E34AF
:104FB0003C0005212846FEF7BCFF064626B1AFF2AD
:104FC0000471304600F0EDFD33E006212846FEF77F
:104FD000B0FF064626B1AFF21471304600F0E1FD95
:104FE00027E005212846FEF7A4FF064626B1AFF2CA
:104FF0002471304600F0D5FD1BE029462046FEF71F
:10500000DCFF064615E029462046FFF7FFFA064674
:105010000FE02B46424639462046FFF793FE0646F0
:1050200007E02B46424639462046FFF77DFC064600
:1050300000BF37E0207B072833D2DFE800F00A10FA
:1050400004161C222A00AFF28C70FEF72AFE0646D8
:1050500027E0AFF29070FEF724FE064621E0AFF2A3
:105060009470FEF71EFE06461BE000212046FEF768
:10507000A4FF064615E000212046FFF7C7FA0646C2
:105080000FE00023424639462046FFF75BFE064606
:1050900007E00023424639462046FFF745FC064616
:1050A00000BF00BF304677E710B504460023012259
:1050B00019462046FFF767FF10BD10B504460023D0
:1050C0001A4619462046FFF75EFF10BDFEB505469D
:1050D0000C46164620460849096888470090019406
:1050E000002002906B46324600212846FFF74BFF16
:1050F000FEBD00004C000020480000205B5D000069
:1051000001468A68002001E0401C1268002AFBD199
:1051100070470246906801E0491E006808B1002906
:10512000FADC704770B505460E46AC6800E02468AE
:105130002CB13146206AFEF78EFD0028F7D12046BB
:1051400070BD01604860704770B50546FEF7D5FD3B
:1051500004460CB9002070BD28222946204600F0E4
:10516000F3FD00202062E06840F48070E0600020E1
:10517000606020602046EEE770B505460E46AC68DC
:1051800006B970BD0CB9AE6009E000E0246814B146
:1051900020680028FAD131462046FFF7D2FF00BF31
:1051A000EFE770B506460D46144604B970BD206A97
:1051B00018B1FE49206A096888472846FEF771FD44
:1051C000206221463046FFF7D7FF00BFEEE770B5FB
:1051D00006460D46144604B970BDA08900F400705F
:1051E00028B9206A18B1F149206A09688847256200
:1051F000E06840F40070E06021463046FFF7BCFFF5
:1052000000BFE9E770B505460C462046FFF79CFF56
:10521000064631462846FFF7AFFF70BD2DE9F04145
:1052200005460E4614462046FFF78EFF07463A46CF
:1052300031462846FFF7B5FFBDE8F08110B50246BC
:105240000B46916801E009685B1E09B1002BFADC8E
:1052500009B9002010BD486810B1D1E900042060F0
:10526000086810B1D1E9004060609068884201D1BF
:10527000086890600020086048600846EAE770B55A
:1052800004460D4629462046FFF7D8FF0646FEF79E
:1052900041FD70BD2DE9F04105460F460026AC6882
:1052A00001E0761C24682CB13946206AFEF7D3FC55
:1052B0000028F6D12CB131462846FFF7BFFFBDE8E4
:1052C000F0810020FBE770B504460D4629462046D4
:1052D000FFF7E0FF0646FEF71DFD70BD2DE9F0412A
:1052E00006460F461446B56801E02D687F1E0DB1D5
:1052F000002FFADC2DB921463046FFF73DFFBDE80F
:10530000F0812560686860606C60B068A84201D177
:10531000B46001E06068046000BFF0E72DE9F0418F
:1053200006460F461446B56801E02D687F1E0DB194
:10533000002FFADC0DB9BDE8F081286820606868AC
:105340006060206808B120684460B068A84201D15C
:10535000B46001E06068046000206860286028464E
:10536000FEF7D8FC00BFE6E72DE9F04105460E4602
:1053700017464FF00008AC6802E008F10108246805
:105380002CB13146206AFEF766FC0028F5D144B105
:105390003046FEF786FC38623A4641462846FFF71B
:1053A000BDFFBDE8F08110B5FEF7A7FC04460CB1C7
:1053B0000220E060204610BD10B5FEF79EFC0446BA
:1053C0000CB10120E060204610BD10B5FEF795FC41
:1053D00004460CB10020E060204610BD70B50546C3
:1053E000FEF78BFC044624B10DB1012000E0002043
:1053F000E060204670BD70B505460E46FEF77DFCA8
:10540000044644B10320E060C4E90656284631460C
:1054100002F0FEFF6061204670BD70B50546FEF7E4
:105420006CFC04462CB10420E0602846FEF739FCF1
:105430002061204670BD10B5FEF75FFC04460CB13C
:105440000520E060204610BD10B5FEF756FC04466E
:105450000CB10620E060204610BD2DE9F05F8146CA
:105460008A460025AB46FFF7E6FF0646002410E01B
:1054700059F8240002F0FBFF0746FFF7BCFF054682
:105480000CB9B56003E029465846FFF75AFEAB4613
:10549000641C0EB15445EBDB3046BDE8F09F2DE9AE
:1054A000F05F81468A460025AB46FFF7C4FF0646FB
:1054B000002410E059F8240003F03CFB0746FFF7F6
:1054C0009AFF05460CB9B56003E029465846FFF738
:1054D00038FEAB46641C0EB15445EBDB3046BDE8EC
:1054E000F09F2DE9F047074688460025A946FFF7BB
:1054F000A2FF0646002410E007EBC400D0E900211B
:105500001046FFF778FF05460CB9B56003E0294661
:105510004846FFF716FEA946641C0EB14445EBDB76
:105520003046BDE8F0872DE9F0470746884600255C
:10553000A946FFF780FF064600240DE057F8240037
:10554000FFF76BFF05460CB9B56003E029464846F6
:10555000FFF7F7FDA946641C0EB14445EEDB30466B
:10556000BDE8F0872DE9F047054689464FF0000871
:1055700015B90020BDE8F087FEF7BFFB04460CB963
:105580000020F7E7E86820F48070E06068696061F7
:10559000D5E90601C4E90601286968B12869FEF762
:1055A00080FB2061206938B9204601E04C000020D2
:1055B000FEF7B0FB0020DDE7286A50B1286AFEF74D
:1055C00070FB2062206A20B92046FEF7A3FB002072
:1055D000D0E7B9F1000F01D12046CBE7AF6816E064
:1055E00001213846FFF7BEFF064626B92046FEF7E2
:1055F00091FB0020BEE7B8F1000F05D0C8F80060AD
:10560000C6F80480B04601E0A660B0463F68002FAF
:10561000E6D12046AEE7014655E00278202A01D1C6
:10562000401C50E00278092A01D1401C4BE002786E
:105630000D2A01D1401C46E002780A2A01D1401C03
:1056400041E002782F2A0BD142782F2A08D100E0BE
:10565000401C0278002A36D002780A2A33D0F7E7B5
:1056600002782F2A0ED142782A2A0BD100E0401C62
:1056700002782AB102782A2AF9D142782F2AF6D163
:10568000801C20E00278222A19D110F8012B01F8A1
:10569000012B0AE002785C2A03D110F8012B01F8F3
:1056A000012B10F8012B01F8012B027812B10278BE
:1056B000222AEFD110F8012B01F8012B03E010F89A
:1056C000012B01F8012B0278002AA6D10A7070473D
:1056D00070B5064600F0BEFB056806F10B0020F031
:1056E0000704B4429CBF002070BD2B466A68BAB163
:1056F0001068A04210D304F1080188423CBF5068F2
:10570000586007D35168101941601168091B016086
:1057100058601460101D70BD13465268002AE7D10E
:105720002146284600F0A2FB0028DED170BD70B5EE
:105730000446051F00F08EFB0068002C14BF44686F
:1057400070BD002C18BFAC423CBF20466468F8D343
:1057500001680A18AA4218BF456003D12A680546A5
:105760001144016028684119A1421CBF6C6070BDE2
:105770006168696021680844286070BD10B50446FE
:1057800000F060FB0068005DC00602D504F1200057
:1057900010BD204610BD00007CB51D4616460C000D
:1057A000009001D02044401E074B7B442A466946A6
:1057B0000190304600F041FE05461CB100206946CC
:1057C00000F04EFE28467CBDBD0C00000FB41CB599
:1057D000084B06AA7B4469460090059800F02DFE10
:1057E00004460020694600F03BFE20461CBC5DF8E4
:1057F00014FB0000890C000070B504468569006840
:10580000C10601D5302600E02026C00707D070BDB4
:10581000D4E9012130469047206A401C20626D1E69
:10582000F6D570BD70B5044685690078C00707D10C
:1058300070BDD4E9012120209047206A401C2062DD
:105840006D1EF6D570BD70B50C460546012A05D013
:105850002878800600D5EA69002302E0012305E0EC
:105860005B1C934202D2E05C0028F9D1A869E618DB
:10587000C01AA861286A184428622846FFF7BCFFAE
:1058800004E0D5E9012114F8010B9047B442F8D3A4
:105890002846FFF7C7FF70BD2DE9F04106460024FA
:1058A00010687529314616A510D000F034FB002889
:1058B00002DA404213A507E031688A0701D512A534
:1058C00002E0490704D511A5012401E000F02CFBFA
:1058D00000210A2206F1240709E0B0FBF2FCB0FB2C
:1058E000F2F302FB1C00303078541846491C0028A3
:1058F000F3D123462A463046BDE8F04100F01DBBF7
:10590000000000002D0000002B000000200000001F
:10591000F0B40D460188090502D5214C7C4402E013
:105920001F4C7C440E34002100F1240608E002F0F4
:105930000F071209E75D42EA03721B097754491CFD
:1059400052EA0307F3D102780023120704D5702D21
:1059500006D009B1022311342246F0BC00F0EDBAA2
:1059600001231034F8E770B504460D46214610684F
:1059700000F0DAFA024629462046BDE870400023CE
:10598000C6E7D21D22F00703D3E90023C0E703686E
:10599000126843F0200303600823C3610023B7E7C4
:1059A000D94B00002DE9F05F894604464FF0000A0C
:1059B000DFF874B1FB44C0F820A02046E1688847B6
:1059C000002874D0252806D0D4E901219047206A08
:1059D000401C2062F1E700265F462046E1688847C8
:1059E0002028054607DB312D05D2781910F8200C48
:1059F00008B10643F1E7B00701D526F00406C4F864
:105A00001CA00027C4F818A02A2D09D0284601F0B0
:105A10000BFD38B304EB8708303DC8F8185019E087
:105A200059F8041B204604EB87029161E16888471E
:105A3000012F054618D1E069002820DA26F020065B
:105A40001DE0D8F8180000EB800005EB400030386E
:105A5000C8F818002046E1688847054601F0E4FCD4
:105A60000028EED1012F0AD02E2D08D12046E16862
:105A700088477F1C0546022F46F02006C4DBA0693C
:105A8000002803DA404246F00106A061F00701D089
:105A900026F010066C2D0BD0682D09D04C2D39D076
:105AA0006A2D35D0742D35D07A2D33D016E038E0FC
:105AB000E1682F4620468847B842054609D16C2F39
:105AC00026D04FF48060E1680643204688470546AB
:105AD00004E06C2F1AD04FF4807006430DB3A5F18B
