:020000040800F2
:100000002807002029100008590300085B03000896
:100010005F03000863030008670300080000000096
:100020000000000000000000000000006B0300085A
:100030006D030008000000006F0300087103000852
:100040004310000843100008431000084310000844
:100050004310000843100008431000084310000834
:100060004310000843100008431000084310000824
:100070004310000843100008431000084310000814
:100080004310000843100008431000084310000804
:1000900043100008431000084310000843100008F4
:1000A00043100008431000084310000843100008E4
:1000B00043100008431000084310000843100008D4
:1000C00043100008431000084310000843100008C4
:1000D00043100008FD0F000843100008651E0008CB
:1000E00043100008431000084310000843100008A4
:1000F0004310000843100008431000084310000894
:100100004310000843100008431000084310000883
:100110004310000843100008431000084310000873
:100120004310000843100008431000084310000863
:1001300000F002F800F094F80AA090E8000C824465
:100140008344AAF10107DA4501D100F089F8AFF242
:10015000090EBAE80F0013F0010F18BFFB1A43F0A5
:10016000010318479C590000BC590000103A24BFF5
:1001700078C878C1FAD8520724BF30C830C144BF0C
:1001800004680C607047000000230024002500264E
:10019000103A28BF78C1FBD8520728BF30C148BFEA
:1001A0000B6070476E2903F01385702903F0738686
:1001B000662905F03284652905F02F84672905F04A
:1001C0002C846129AFF3008003681B0A28BF41F02B
:1001D0008001692903F05082642903F04D8275295A
:1001E00003F04A826F2903F00186782903F03F86E5
:1001F000E92903F09B85E42903F09885F52903F0AC
:100200009585EF2903F0FE85F82903F03E86036803
:10021000DB0928BF41F08001632903F01C857329A5
:1002200003F02185E32904F05581F32904F05A8174
:10023000002070471FB59DE8030003F001FC04F0A7
:10024000F1F904000020002104F01EFF401C606052
:100250000020002104F02EFFE0601FBD10B510BD8E
:1002600004F0BBF91146FFF7E5FF00F009F804F0D0
:1002700099FA03B4FFF7F2FF03BC04F0C7FA0000D9
:1002800000F01EFD00F08EFB00F0B2FB4FF4E130F9
:1002900000F080FD4FF4E13000F020FE00F0C4FBE0
:1002A00001F050FD03E04FF4FA7000F046FD02F05B
:1002B00097FD0028F7D101211B4802F0FBFD32E039
:1002C00000F0C5FB194908700020194908604FF477
:1002D000967000F032FD01201649C1F894014FF4E8
:1002E000967000F02AFD14480088401C80B2124924
:1002F00008800A2808DB11A113A002F003FE0020E9
:100300000D49088001F0A2FC032001F0FAFC11491C
:1003100008600846006818B10846006802F01DFE33
:100320000A2000F00AFDCBE70400002000000020B6
:100330009481214200802142080000206F682079CA
:100340006561682100000000736D617274707562F0
:10035000000000000C000020704700BFFEE700BF57
:10036000FEE700BFFEE700BFFEE77047704770473B
:10037000704700000CB50020019000906C480068A8
:1003800040F480306A49086000BF6948006800F4A2
:10039000003000900198401C0190009818B9019815
:1003A000B0F5A06FF1D16248006800F4003010B1E0
:1003B0000120009001E0002000900098012843D126
:1003C0005C48006840F010005A4908600846006820
:1003D00020F0030008600846006840F00200086052
:1003E000534840685249486008464068486008469B
:1003F000406840F4806048600846406820F47C1003
:1004000048600846406840F4E810486008460068C4
:1004100040F08070086000BF4548006800F0007040
:100420000028F9D04248406820F003004049486065
:100430000846406840F00200486000BF3C48406801
:1004400000F00C000828F9D10CBD10B5FFF792FFA1
:1004500010BD10B53648006840F00100344908600E
:1004600008464068344908403149486008460068F9
:10047000324908402E4908600846006820F4802070
:1004800008600846406820F4FE0048604FF41F00F2
:100490008860FFF7DAFF4FF000602949086010BD5F
:1004A00010B5002100200022214B5B6803F00C01F5
:1004B00021B1042906D0082928D107E0214B224C7C
:1004C000236027E01F4B204C236023E0184B5B6820
:1004D00003F47010164B5B6803F48032022303EBC5
:1004E000904022B9194B4343174C23600DE0104B49
:1004F0005B6803F4003323B1144B4343124C236075
:1005000003E0104B4343104C236003E00D4B0E4CB3
:10051000236000BF00BF064B5B68C3F303130C4CA2
:10052000E15C094B1B68CB40074C236010BD000009
:1005300000100240002002400000FFF8FFFFF6FE1E
:1005400008ED00E000127A001000002000093D00D4
:100550001400002010B50446FA48844208D1012155
:10056000401501F025F90021601501F021F917E08F
:10057000F548844208D10121001501F019F9002144
:10058000201501F015F90BE0F048844208D1012153
:10059000C80301F00DF900214FF4004001F008F903
:1005A00010BD30B50246002000235068E84C2040C2
:1005B0000D790C6844EA0524204350609068E54CAE
:1005C0002040D1E902542C434D7944EA45042043AC
:1005D0009060D06A20F470000C7C641EE4B2234367
:1005E00040EA0350D06230BD0021016001714171C9
:1005F0008160C16001210174704721B1826842F0BD
:100600000102826003E0826822F00102826070478A
:1006100021B1826842F48072826003E0826822F431
:1006200080728260704710B50023CBB21AB1446863
:100630001C43446002E044689C43446010BD8168F0
:1006400041F0080181607047014600208A6802F08D
:1006500008020AB1012000E000207047816841F0E3
:10066000040181607047014600208A6802F004029C
:100670000AB1012000E00020704721B1826842F4F5
:10068000A002826003E0826822F4A00282607047C8
:10069000014600208A6802F480020AB1012000E0CD
:1006A0000020704710B50A4600210023416821F45C
:1006B0006041531E41EA4331416010BD21B142689F
:1006C00042F40062426003E0426822F40062426049
:1006D0007047F0B504460D4600200021092D11DDBC
:1006E000E068A5F10A0606EB4607072606FA07F1B9
:1006F0008843A5F10A0606EB460603FA06F108430D
:10070000E0600CE0206905EB4507072606FA07F1D3
:10071000884305EB450603FA06F108432061072AE2
:100720000FDA606B561E06EB86071F2606FA07F1E6
:100730008843561E06EB860605FA06F108436063F9
:1007400022E00D2A0FDA206BD61F06EB86071F2644
:1007500006FA07F18843D61F06EB860605FA06F16E
:100760000843206310E0E06AA2F10D0606EB86075D
:100770001F2606FA07F18843A2F10D0606EB86064E
:1007800005FA06F10843E062F0BD21B1826842F447
:100790008012826003E0826822F4801282607047D7
:1007A0000146C86C80B2704766484C30006870479C
:1007B00021B1426842F48062426003E0426822F460
:1007C00080624260704721B1426842F480524260C8
:1007D00003E0426822F48052426070470A460021DA
:1007E000816821F4E04111438160704721B1826842
:1007F00042F40042826003E0826822F40042826098
:10080000704721B1826842F40212826003E082687C
:1008100022F4021282607047014600208A6802F4C6
:1008200000120AB1012000E000207047F0B5044634
:100830001546002000220026092911DDE068A1F1FB
:100840000A0707EB470C072707FA0CF29043A1F1C0
:100850000A0707EB470703FA07F21043E0600CE0D2
:10086000206901EB410C072707FA0CF2904301EBDA
:10087000410703FA07F210432061A06BC0F3015651
:10088000EF1C06F1010CA7EB0C0707EB870C1F27E9
:1008900007FA0CF29043EF1C06F1010CA7EB0C07D2
:1008A00007EB870701FA07F21043A063F0BD10B50C
:1008B0000A4600210023816B21F44011531E41EAB6
:1008C0000351816310BD08B5002300930090009B85
:1008D0000B440093009B1A6008BD08B50246002037
:1008E0000090009201F12800009B184400900098AD
:1008F000006880B208BD0A4600214168164B1940C5
:100900001143416070474162826270470A4600218C
:10091000416821F01F0111434160704740B109490E
:100920000831096841F40001064A0832116007E005
:1009300004490831096821F40001024A08321160B3
:10094000704700000024014000280140003C0140A5
:10095000FFFEF0FFFDF7F1FFFFFD3FFF0246002025
:1009600013680B400BB1012000E000207047CA4320
:100970000260704770B502460020002300240B126D
:100980005568CEB205EA060415681D4015B10CB1D4
:10099000012000E0002070BD00220A12D343036052
:1009A0007047000008B50121482000F0E7FE202034
:1009B000ADF8000010208DF8030003208DF8020030
:1009C0006946094800F01EFC2021074800F0C7FCDA
:1009D0002020ADF800006946044800F013FC2021F7
:1009E000024800F0BCFC08BD000C014000180140AA
:1009F00008B50121082000F0C1FE4FF48070ADF869
:100A0000000010208DF8030003208DF802006946D5
:100A1000044800F0F7FB4FF48071024800F0A1FC9D
:100A200008BD0000000C014008B50121802000F045
:100A3000A5FE4FF48070ADF8000000208DF8030093
:100A40006946124800F0DEFB00F0D5F808BD70B52D
:100A50000024002508E0062000F009F904440520E0
:100A600000F06BF9681CC5B20A2DF4DB0A20B4FB58
:100A7000F0F4B4F57A6F01D94FF47A642820B4FB0E
:100A8000F0F0C0F16400C0B270BD0000001C014075
:100A900000B585B001214FF4017000F06FFE4FF4F6
:100AA000004000F0CFFD7D48FFF754FD002000908E
:100AB0008DF804008DF805004FF4602002900020AE
:100AC000039001208DF8100069467448FFF769FD16
:100AD0000120FFF723FF01217048FFF78EFD6F48CB
:100AE000FFF7ADFD00BF6D48FFF7AEFD0028FAD15E
:100AF0006A48FFF7B3FD00BF6848FFF7B4FD002860
:100B0000FAD105B000BD10B50446072301222146E5
:100B10006248FFF7DEFD01216048FFF7AEFD00BF30
:100B200002215E48FFF71AFF0028F9D05B48FFF763
:100B300037FE10BD70B50024002509E01020FFF736
:100B4000E2FF204484B2052000F0F7F8681CC5B22B
:100B50000A2DF3DB0A2094FBF0F080B270BD2DE982
:100B6000F04107460C460025002608E03846FFF70E
:100B7000CAFF0544052000F0E0F8701CC6B2A6428A
:100B8000F4DBB5FBF4F080B2BDE8F0812DE9F05F55
:100B900014211020FFF7E3FF8346584604F0E4FEDB
:100BA000804604F0B5FE06464FF066323C4B04F03A
:100BB000C7FC04460D4622462B463A483A4904F003
:100BC000BDFD8046394A3A4B04F032FB064600220E
:100BD000384B04F085FA04460D460022364B204679
:100BE000294604F0ADFC064604F07AFC0FFA80FAC0
:100BF0005046BDE8F09F00B585B00121C80300F064
:100C0000BDFD0121C80300F0D3FD00214FF40040D9
:100C100000F0CEFD2948FFF79DFC002000908DF8E4
:100C200004008DF805004FF460200290002003902E
:100C300001208DF8100069462048FFF7B2FC012121
:100C40001E48FFF7DAFC1D48FFF7F9FC00BF1B4800
:100C5000FFF7FAFC0028FAD11848FFF7FFFC00BFA5
:100C60001648FFF700FD0028FAD105B000BD10B509
:100C700004460723012221461048FFF72AFD0121DF
:100C80000E48FFF7FAFC00BF02210C48FFF766FE92
:100C90000028F9D00948FFF783FD10BD002401406A
:100CA00066664A3FE17A14AE47E1F63F22FDF675EB
:100CB000E09C713F0000394000005940003C014079
:100CC00010B56FF0040000F01EFA2E4800682E499F
:100CD000B0FBF1F02D4908700846007800EB4001A8
:100CE000C1EBC0104FF6FF7101EAC000284908802F
:100CF00010BD0146254A12784A434FF0E0235A615D
:100D000000229A611A46126942F001021A6100BF7C
:100D10004FF0E022106900F001021AB100F48032B5
:100D2000002AF5D04FF0E022126922F001024FF0C4
:100D3000E0231A6100229A6170470146144A128822
:100D40004A434FF0E0235A6100229A611A46126921
:100D500042F001021A6100BF4FF0E022106900F07A
:100D600001021AB100F48032002AF5D04FF0E022DF
:100D7000126922F001024FF0E0231A6100229A6109
:100D8000704700001000002000127A0024000020AC
:100D90002600002010B586B004460121042000F092
:100DA000EDFC0121880300F0E9FC18208DF8170004
:100DB0004FF40070ADF8140003208DF8160005A95B
:100DC000944800F01FFA04208DF817000002ADF8D7
:100DD000140003208DF8160005A98E4800F012FAC1
:100DE00001940020ADF810000C20ADF80E0000209A
:100DF000ADF80C00ADF80A00ADF8080001A986486E
:100E000000F063FD0121844800F0EBFD012240F277
:100E10002551814800F0F1FD25208DF800000120CA
:100E20008DF8030000208DF8010002208DF80200EB
:100E3000684600F01EF906B010BD10B586B0044635
:100E40000121042000F09AFC0121480400F0A3FCD9
:100E500018208DF817000420ADF8140003208DF839
:100E6000160005A96B4800F0CDF904208DF8170095
:100E70000820ADF8140003208DF8160005A9654878
:100E800000F0C0F901940020ADF810000C20ADF87E
:100E90000E000020ADF80C00ADF80A00ADF8080017
:100EA00001A95E4800F011FD01215C4800F099FDA8
:100EB000012240F22551594800F09FFD26208DF86F
:100EC000000001208DF8030000208DF801008DF84E
:100ED0000200684600F0CDF806B010BD10B586B02F
:100EE00004460121082000F049FC0121880400F09B
:100EF00052FC18208DF817004FF48060ADF81400F4
:100F000003208DF8160005A9454800F07BF9042060
:100F10008DF817004002ADF8140003208DF816007C
:100F200005A93F4800F06EF901940020ADF81000CB
:100F30000C20ADF80E000020ADF80C00ADF80A0052
:100F4000ADF8080001A9374800F0BFFC0121354881
:100F500000F047FD012240F22551324800F04DFDDE
:100F600027208DF8000001208DF8030000208DF867
:100F7000010003208DF80200684600F07AF806B000
:100F800010BD2DE9F04107460C46154600260DE040
:100F900014F8011B384600F091FD00BF402138468F
:100FA00000F0FAFD0028F9D0701C86B2AE42EFDBEB
:100FB000BDE8F0810FB430B5CBB0054601AC50A808
:100FC00000904FF4947101A8009B4F9A02F0FAFA36
:100FD000002000900BE014F8011B284600F06EFD85
:100FE00000BF4021284600F0D7FD0028F9D0207826
:100FF0000028F0D14BB030BC5DF814FB10B540F2C6
:101000002551054800F0DEFD18B12021024800F00E
:10101000D0FD10BD000801400038014000440040F0
:10102000000C01400048004009488047094800473B
:10103000FEE7FEE7FEE7FEE7FEE7FEE7FEE7FEE788
:10104000FEE7FEE704480549054A064B70470000E5
:10105000530400083101000828010020280700205F
:10106000280300202803002031490143314A116040
:10107000704770B5002100230F22C47804B32D4CB3
:10108000246804F4E064C4F5E064210AC1F10403B7
:10109000CA40447804FA03F18478144021430901DA
:1010A000254C0678A155047804F01F050124AC40B6
:1010B00005786D11AD0005F1E025C5F8004109E0A6
:1010C000047804F01F050124AC401C4D067876110D
:1010D00045F8264070BD1A4A0A400243154B1B1FB3
:1010E0001A60704739B1134A121D12680243114B3E
:1010F0001B1D1A6006E00F4A121D126882430D4B39
:101100001B1D1A607047042808D14FF0E0210969BF
:1011100041F004014FF0E022116107E04FF0E021BF
:10112000096921F004014FF0E022116170470000CD
:101130000000FA050CED00E000E400E080E100E0D2
:1011400080FFFF1F10B50446CC48844208D101211E
:10115000042000F02DFB0021042000F029FB46E0D4
:10116000C748844208D10121082000F021FB00215A
:10117000082000F01DFB3AE0C248844208D101215A
:10118000102000F015FB0021102000F011FB2EE0D4
:10119000BD48844208D10121202000F009FB002134
:1011A000202000F005FB22E0B848844208D101214C
:1011B000402000F0FDFA0021402000F0F9FA16E08E
:1011C000B348844208D10121802000F0F1FA0021C7
:1011D000802000F0EDFA0AE0AE48844207D10121F8
:1011E000801500F0E5FA0021A01500F0E1FA10BD2D
:1011F00010B50121084600F0DBFA0021012000F0C3
:10120000D7FA10BD2DE9F041024600250026002046
:1012100000230024002791F803C00CF00F0591F87B
:1012200003C00CF0100CBCF1000F03D091F802C009
:101230004CEA050591F800C0BCF1000F31D01468EC
:1012400000202BE04FF0010C0CFA00F3B1F800C0C5
:101250000CEA03069E4220D183004FF00F0C0CFADB
:1012600003F7BC4305FA03FC4CEA040491F803C0FD
:10127000BCF1280F06D14FF0010C0CFA00FCC2F8AB
:1012800014C00AE091F803C0BCF1480F05D14FF03B
:10129000010C0CFA00FCC2F810C0401C0828D1D385
:1012A0001460B1F800C0BCF1FF0F34DD54680020B9
:1012B0002EE000F1080C4FF0010808FA0CF3B1F829
:1012C00000C00CEA03069E4221D183004FF00F0CB0
:1012D0000CFA03F7BC4305FA03FC4CEA040491F84A
:1012E00003C0BCF1280F05D100F1080C08FA0CF876
:1012F000C2F8148091F803C0BCF1480F07D100F187
:10130000080C4FF0010808FA0CF8C2F81080401CD5
:101310000828CED35460BDE8F0814FF6FF710180FC
:10132000022181700421C170704702460020936839
:101330000B400BB1012000E0002070470146886897
:1013400080B2704702460020D3680B400BB10120E9
:1013500000E0002070470146C86880B27047016114
:101360007047416170470AB1016100E04161704717
:10137000C16070474FF480320A43826181618261AB
:1013800082698269704702460020434B18684FF615
:101390008073184040EA021008433F4B18607047C2
:1013A0003E49C8617047F0B50A4600230024002179
:1013B000002500F00046B6F1004F02D1364EF1692B
:1013C00001E0354E7168C0F3034583B200F4401666
:1013D000B6F5401F08D121F070612F4E766826F0D7
:1013E00070662D4F7E6012E000F48016B6F5801F07
:1013F00006D1032606FA05F4A14341F0706106E028
:10140000460D360103FA06F6B14341F0706122B190
:10141000460D360103FA06F6314300F00046B6F1F8
:10142000004F02D11C4EF16101E01B4E7160F0BD16
:1014300030B500228B071C0F0F2303FA04F2164B62
:1014400008338C1053F824309343134C08348D1018
:1014500044F8253023468C1053F824308C07240F91
:1014600000FA04F423430C4C08348D1044F8253062
:1014700030BD0A49DC3108607047000000080140B7
:10148000000C014000100140001401400018014010
:10149000001C0140002001400000014000002042EB
:1014A000DF48006840F00100DD49086008464068F8
:1014B000DC490840DA49486008460068DA490840D3
:1014C000D74908600846006820F480200860084674
:1014D000406820F4FE0048604FF41F0088607047A9
:1014E000CF49096821F48031CD4A1160114609685D
:1014F00021F480211160B0F5803F03D0B0F5802F3A
:101500000ED106E0C649096841F48031C44A116031
:1015100007E0C349096841F4A021C14A116000E015
:1015200000BF00BF704710B5014600220023002015
:101530004A11012A02D1BA4C236806E0022A02D1DC
:10154000B74C236A01E0B64C636A01F01F02012424
:1015500094401C400CB1012000E0002010BD38B5C3
:10156000002000900024002500BF3120FFF7DBFFA2
:1015700005460098401C00900098B0F5A06F01D07F
:10158000002DF2D03120FFF7CEFF08B1012400E09A
:101590000024204638BD01460020A14A106820F0F2
:1015A000F80040EAC10010607047A0490860704729
:1015B000024600209A4B586820F47C1042EA01034E
:1015C0001843974B58607047984908667047014622
:1015D0000020934A506820F0030008435060704791
:1015E0008F48406800F00C007047014600208C4A8C
:1015F000506820F0F000084350607047014600201A
:10160000874A506820F4E060084350607047014604
:101610000020834A506820F4605040EAC1005060C6
:10162000704729B17E4A527A02437D4B5A7204E0D8
:101630007B4A527A82437A4B5A7270477B49D8313F
:101640000860704701460020754A506820F4404009
:101650000843506070470021714A20321170704A6F
:1016600082F82010012802D004280AD104E00121C8
:101670006B4A2032117005E00521694A2032117051
:1016800000E000BF00BF70476949086070476449C7
:10169000096A0143624A116270476549443908602A
:1016A000704730B500210022002400235C4D6D6896
:1016B00005F00C0121B1042905D0082923D105E04A
:1016C0005C4D056022E05B4D05601FE0544D6D6888
:1016D00005F47012524D6D6805F48034022505EB57
:1016E00092421CB9544D554305600BE04C4D6D685A
:1016F00005F400351DB1504D5543056002E04D4DD8
:101700005543056002E04B4D056000BF00BF444DEE
:101710006D6805F0F0010909484D6B5C0568DD4016
:1017200045603F4D6D6805F4E061090A434D6B5C0F
:101730004568DD4085603A4D6D6805F46051C90A21
:101740003E4D6B5C4568DD40C560354D6D6805F408
:101750004041890B3A4D6B5CC568B5FBF3F50561FB
:1017600030BD29B12E4A526902432D4B5A6104E023
:101770002B4A526982432A4B5A61704729B1284A41
:1017800092690243264B9A6104E0254A926982439A
:10179000234B9A61704729B1214AD2690243204BF9
:1017A000DA6104E01E4AD26982431D4BDA61704758
:1017B00029B11B4AD2680243194BDA6004E0184A87
:1017C000D2688243164BDA60704729B1144A126915
:1017D0000243134B1A6104E0114A12698243104B11
:1017E0001A61704712494039086070470F49C86450
:1017F00070470B49C87170470948406A40F08070D3
:1018000007494862704701460020054A92680A402D
:101810000AB1012000E0002070470149887270473A
:10182000001002400000FFF8FFFFF6FE00004242F9
:101830008004424200127A0000093D002800002086
:101840003800002010B50446FB48844209D101212C
:101850008803FFF7ADFF00214FF48040FFF7A8FF9A
:1018600032E0F648844209D101214804FFF7ADFF78
:1018700000214FF40030FFF7A8FF25E0F048844234
:1018800009D101218804FFF7A0FF00214FF4802037
:10189000FFF79BFF18E0EB48844209D10121C804FF
:1018A000FFF793FF00214FF40020FFF78EFF0BE0BE
:1018B000E548844208D101210805FFF786FF002191
:1018C0004FF48010FFF781FF10BD2DE9F04786B07F
:1018D00005460E460024A24600BFA1460027B08957
:1018E00000B100BF2F462C8A4CF6FF700440F088F0
:1018F00004432C82AC894EF6F3100440B088318941
:101900000843718908430443AC81AC8A4FF6FF4019
:101910000440B0890443AC8201A8FFF7C2FEC64868
:10192000874202D1DDF810A001E0DDF80CA0A88903
:1019300000F4004040B10AEBCA0000EB0A10316825
:101940004900B0FBF1F807E00AEBCA0000EB0A100F
:1019500031688900B0FBF1F86420B8FBF0F00401B5
:101960002009642101FB1089A88900F4004040B1DE
:10197000322000EBC900B0FBF1F000F00700044397
:1019800008E0322000EB09106421B0FBF1F000F018
:101990000F0004432C8106B0BDE8F0874FF41651C8
:1019A000016000218180C18001810C2141810021E1
:1019B0008181704710B502460020108A4FF2FF0364
:1019C00018400B884C8823438C882343CC882343BE
:1019D0001843108210BD0021018041808180C180A8
:1019E000704721B1828942F40052828104E08289E9
:1019F0004DF6FF731A4082817047F0B5034600240C
:101A000000260025002040F66A17B94200D100BF29
:101A10001846C1F3421401F01F06012707FA06F524
:101A2000012C01D10C3004E0022C01D1103000E077
:101A300014301AB107682F43076002E00768AF430C
:101A40000760F0BD1AB1838A0B43838202E0838A68
:101A50008B4383827047028A4FF6F0731A400282EA
:101A6000028A0A430282704782894FF2FF731A404A
:101A7000828182890A438281704721B1828942F042
:101A80000202828104E082894FF6FD731A4082814E
:101A90007047028A4FF6DF731A400282028A0A43B5
:101AA0000282704721B1028A42F48042028204E03D
:101AB000028A4BF6FF731A4002827047C1F3080294
:101AC0008280704701468888C0F30800704781898A
:101AD00041F0010181817047028BD2B20283028BF7
:101AE00042EA012202837047028B02F47F420283A2
:101AF000028B0A430283704721B1828A42F020029E
:101B0000828204E0828A4FF6DF731A408282704735
:101B100021B1828A42F01002828204E0828A4FF66A
:101B2000EF731A408282704721B1828A42F0080224
:101B3000828204E0828A4FF6F7731A4082827047ED
:101B400021B1828942F40042828103E08289C2F39A
:101B50000E028281704721B1828A42F40062828241
:101B600004E0828A4FF2FF731A4082827047828AB1
:101B70004FF6FB731A408282828A0A438282704740
:101B800021B1828A42F00202828204E0828A4FF608
:101B9000FD731A408282704702460020B1F5007F33
:101BA00000D100BF13880B400BB1012000E00020E2
:101BB000704701F40072B2F5007F00D100BFCA4344
:101BC0000280704770B502460024002300250020E3
:101BD00040F66A16B14200D100BFC1F3421501F0D0
:101BE0001F03012606FA03F3012D02D19689334023
:101BF00006E0022D02D1168A334001E0968A334076
:101C00000C12012606FA04F41688344013B10CB104
:101C1000012000E0002070BD10B50022002340F636
:101C20006A14A14200D100BF0A1201249440A3B259
:101C3000DC43048010BD0000003801400044004037
:101C400000480040004C00400050004010B580218A
:101C5000944801F0B0FE00209349088010BD9248DE
:101C6000008808B9012070478F4800888F4909888B
:101C7000884203D100208C490880F4E78A48008814
:101C80008A4908800120EEE72DE9F04104460D461F
:101C9000C826204601F02BFE87B23A4621468448EA
:101CA000FFF76FF90FE0FFF7DAFF48B929467D48E3
:101CB00001F00BFE20B1FFF7C9FF0020BDE8F08165
:101CC0000A20FFF73AF83000A6F10101CEB2EAD1BE
:101CD0000120F3E730B589B004460D46FFF7B6FFA3
:101CE0002A4674A101A801F087FC76A101A8FFF79C
:101CF000CBFF20B92A4621466D48FFF742F909B0CB
:101D000030BD70B50546002400BFFFF7A8FF80B9BD
:101D10006DA1644801F0D9FD044654B13A21204632
:101D200001F0B7FD044614B1641C204670BD0020CC
:101D3000FCE70520FFF701F8681E85B2002DE4DC02
:101D40000020F3E708B501210420FFF717FD10205C
:101D50008DF803008002ADF8000003208DF802002A
:101D600069465B48FFF74EFA00224FF4804158481D
:101D7000FFF7F9FAFA20FEF7E0FF01229103544839
:101D8000FFF7F1FA4FF4FA70FEF7D7FFFFF75EFFA7
:101D900050A15248FFF70EF903E04FF4FA70FEF736
:101DA000CCFF4FA14FA0FFF76FFF0028F5D14FA147
:101DB0004A48FFF7FFF803E04FF4FA70FEF7BDFF63
:101DC00042A14DA0FFF760FF0028F5D103E04FF4DA
:101DD000FA70FEF7B2FF3DA14AA0FFF755FF0028B9
:101DE000F5D14CA13D48FFF7E5F803E04FF4FA7058
:101DF000FEF7A3FF3AA14AA0FFF746FF0028F5D15E
:101E00004BA13648FFF7D6F803E04FF4FA70FEF71F
:101E100094FF33A14AA0FFF737FF0028F5D14CA16A
:101E20002E48FFF7C7F803E04FF4FA70FEF785FF7E
:101E30004AA14CA0FFF728FF0028F5D152A127485E
:101E4000FFF7B8F803E04FF4FA70FEF776FF52A1FF
:101E500053A0FFF719FF0028F5D15CA11F48FFF739
:101E6000A9F808BD10B540F225511148FFF7AAFEA8
:101E7000B0B10D480088802802D300200A490880AC
:101E80000B48001D0088C1B2074802880088401C2A
:101E9000054B18800348815420210548FFF789FE2F
:101EA00010BD0000440000203C0000203E00002047
:101EB0000048004041542B43495053454E443D2572
:101EC000640D0A003E0000004950442C0000000050
:101ED00000100140302E2041540D0A00003801400E
:101EE0004F4B000041540D0A00000000312E2052DB
:101EF00053540D0A0000000041542B5245530D0A63
:101F00000000000041542B434950434C4F53450DB2
:101F10000A000000322E2043574D4F44450D0A0061
:101F200041542B43574D4F44453D310D0A000000AD
:101F3000332E2041542B4357444843500D0A000090
:101F400041542B4357444843503D312C310D0A0036
:101F5000342E2043574A41500D0A0000474F542069
:101F60004950000041542B43574A41503D22332DE4
:101F7000313230222C226875616E6767756F636835
:101F8000656E220D0A000000352E2043495053543F
:101F90004152540D0A000000434F4E4E4543540039
:101FA00041542B43495053544152543D22544350C1
:101FB000222C2262726F6B65722E656D71782E69AC
:101FC0006F222C313838330D0A000000362E2045A0
:101FD00053503832363620496E6974204F4B0D0A03
:101FE0000000000070B504460E460025206898B930
:101FF00001202073304601F08FFA20602068E0B1A4
:1020000000206060A66003E00020216848556D1C38
:10201000A068A842F8D810E00220207303E0002056
:10202000216848556D1CA068A842F8D8002060605F
:10203000A068B04201D20020206070BD10B50446F7
:10204000207B012802D1206801F095FA0020206051
:102050006060A060207310BD0246002301230DE0E4
:1020600002F07F000870D2092AB1087840F08000A1
:102070000870491C01E0184670475B1C042BEFDD1B
:102080004FF0FF30F8E7F0B504460D462646012331
:1020900000201060002114E0775C07F07F071068D3
:1020A00007FB03001060705C00F0800008B9481C5A
:1020B000F0BDDB01B3F5001F02D36FF00100F7E7BD
:1020C000491CA942E8DB4FF0FF30F1E7F8B50446C0
:1020D000FF2720780511012D01DB0E2D01DD38468B
:1020E000F8BD032D24D1002000906A460421601C15
:1020F000FFF7C9FF2044461C0098022803D320782C
:1021000000F0010008B1FF20EAE77078317840EA7A
:102110000120801C0099884201D9FF20E0E7F8A146
:10212000B01C01F0D2FB08B10F2700E0032700E04C
:102130002F463846D4E72DE9FF4F83B082468B46C1
:102140009146159C0025002002900F2701904846DB
:1021500001F0CDFB0FFA80F8B9F1000F03D1012097
:1021600007B0BDE8F08F08F10200384487B210983C
:1021700008B145F00205129878B145F004051298AF
:1021800001F0B5FBC0B20290139801F0B0FB01461C
:102190000298001D0844384487B2119820B10128E4
:1021A00004D0022808D104E000BF07E045F00C0588
:1021B00004E045F0140501E00220D1E700BF1498C7
:1021C00008B145F02405BAF1000F02D0BBF1000FB1
:1021D00001D10320C4E745F0C005504601F087FB5C
:1021E0000646584601F083FB3044001D384487B250
:1021F00039462046FFF7F6FE206808B90420AFE70D
:102200003946206801F0D7FB10216268501C6060DD
:1022100020688154D4E90023D118781FFFF71CFFF0
:1022200000B201900198002804DA2046FFF706FF6B
:10223000052095E7616801980844606000216268A4
:10224000501C60602068815404216268501C6060EA
:10225000206881544D216268501C60602068815460
:1022600051216268501C606020688154542162686A
:10227000501C6060206881546268501C6060206857
:10228000815404216268501C606020688154616838
:10229000481C6060206845540698010A6268501C1A
:1022A0006060206881540698C1B26268501C60600A
:1022B00020688154C8F307216268501C6060206860
:1022C00081546268501C6060206800F80280D4E984
:1022D000001288184246494601F0E5FA6068404419
:1022E000606005F00400B8B30026139808B986A012
:1022F0001390129801F0FBFA86B2310A6268501C02
:102300006060206881546268501C60602068865458
:10231000D4E9001288183246129901F0C4FA6068B4
:1023200030446060139801F0E2FA86B2310A6268C4
:10233000501C6060206881546268501C6060206896
:102340008654D4E9001288183246139901F0ABFA8A
:1023500060683044606000BF05F08000C8B150463E
:1023600001F0C5FA86B2310A6268501C60602068CC
:1023700081546268501C606020688654D4E9001261
:1023800088183246514601F08EFA60683044606029
:1023900000BF05F04000C8B1584601F0A8FA86B267
:1023A000310A6268501C6060206881546268501C69
:1023B000606020688654D4E9001288183246594675
:1023C00001F071FA60683044606000BF0020C7E629
:1023D00010B5044602212046FFF704FE206808B924
:1023E000012010BDE0216268501C606020688154AB
:1023F00000216268501C6060206881540020F0E772
:1024000001464878022801D001207047887810B131
:102410008878012801D1C878F7E7FF20F5E72DE992
:10242000FF4F83B0834617469946139C002500262C
:102430000020029001908046BBF1000F03D10120E3
:1024400007B0BDE8F08F00260AE00498805D2328DD
:1024500003D00498805D2B2801D10220F0E7761C80
:102460000498805D0028F0D148F03008119808B138
:1024700048F0010806EB0900851C109820B10128DE
:1024800004D002280AD105E000BF09E048F00208A4
:10249000AD1C05E048F00408AD1C01E00320CFE7C7
:1024A00000BF67B33878022821D14FF0000A00BF7F
:1024B00050460AF1010A385C7D28F9D1AAF1030AD5
:1024C0000AF1070002900298A9EB000AE81CA0EBB1
:1024D0000A012046FFF786FD206808B90420AFE70F
:1024E000EA1CA2EB0A01206801F065FA1FE0691DF1
:1024F0002046FFF777FD206840B90420A0E70AE0F6
:10250000246372657100000000000000691D2068EE
:1025100001F051FA0BE0691D2046FFF763FD2068CA
:1025200008B904208CE7691D206801F044FA61684D
:10253000481C6060206800F80180D4E9000281181E
:102540002846FFF789FD01900198002804DA20460B
:10255000FFF774FD052073E7616801980844606027
:10256000C6F307216268501C60602068815462686D
:10257000501C606020688654D4E9001288183246E6
:10258000049901F090F9606830446060109860B17F
:102590004FEA1B216268501C6060206881546268A9
:1025A000501C6060206800F802B0C7B1387802287B
:1025B0000BD1D4E9001288183946029A01F0B6F915
:1025C000616802980844606009E0D4E90012881844
:1025D0004A46394601F0AAF9606848446060002024
:1025E0002EE72DE9FF4107460D4690461E460A9C00
:1025F00001200021CDE90001EB1C0A46FAA1CDE93A
:1026000002040A20FFF70BFF88B96168481C60606C
:1026100020684654C5F307216268501C606020683A
:1026200081546268501C60602068855403E001207A
:1026300004B0BDE8F0810020FAE72DE9F04F85B045
:1026400080460D4691460120049000270026002474
:102650004FF0000A404601F04AF900F10D0B5846D0
:1026600000F05AFF07461FB9049805B0BDE8F08F87
:102670004246DEA1384600F0BFFF384601F037F988
:10268000C6B2F01D00EB050AAAEB050000F044FFFE
:10269000044624B9384600F06EFF0498E5E70220AE
:1026A000207000206070A67032463946E01C01F0B0
:1026B0003DF9290EF01C2154C5F30741301D21546A
:1026C000C5F30721701D2154B01D255401200021A0
:1026D000CDE9000153462246C3A1CDE902090A20F3
:1026E000FFF79DFE08B900200490384600F043FF34
:1026F000204600F040FF0498B7E72DE9F8438046F4
:102700000C4615461E462F2108F1060001F0C1F8BF
:1027100007460020009017B90120BDE8F8837F1C10
:102720006A46042108F10100FFF7ADFC252000F006
:10273000F3FE2060206808B90220EEE7252120681A
:1027400001F039F924223946206801F0EFF82437E6
:1027500000982C3830803188481C00F0DDFE28605D
:10276000286820B9206800F006FF0320D5E73288EA
:10277000511C286801F01FF932883946286801F099
:10278000D5F80020C9E72DE9FF5F07460D469046C2
:10279000384601F0ACF886B2284601F0A8F81FFAD6
:1027A00080FA4FF00009F01D00F0B6FE04461CB997
:1027B000012004B0BDE8F09FF11D204601F0FBF8B8
:1027C0008EA0016821608088A0803246394620466C
:1027D00001F069F8284601F08AF8834601200021BB
:1027E00000915B462A46CDE90208019121460A2064
:1027F000FFF715FE10B94FF0000901E04FF0010995
:10280000204600F0B8FE4846D3E72DE9FF5F80463A
:10281000174699460E9C0026B246B3460025B8F1ED
:10282000000F03D1012004B0BDE8F09F0BE057F882
:10283000250008B90220F6E757F8250001F057F8FF
:102840000644681CC5B24D45F1DB09EB4900801C0C
:1028500000EB060A0AF105012046FFF7C3FB2068DA
:1028600008B90320DFE782216268501C606020689D
:102870008154D4E9000281185046FFF7EDFB0FFAAE
:1028800080FBBBF1000F04DA2046FFF7D7FB0420E2
:10289000C9E76068584460604FEA18216268501CBC
:1028A0006060206881546268501C6060206800F895
:1028B0000280002524E057F8250001F018F80646AC
:1028C000C6F307216268501C60602068815462680A
:1028D000501C606020688654D4E90023D01857F853
:1028E0002510324600F0DFFF6068304460600198D8
:1028F000C1B26268501C606020688154681CC5B217
:102900004D45D8DB00208EE70146FF208A78A2B92A
:10291000CA78142A11D10A7932B1012A05D0022AC3
:1029200004D0802A06D103E000BF00BF002003E0EE
:10293000012001E0022000BF00BF70472DE9F05FD9
:1029400080460F4691461C460026B246B3460025F7
:10295000B8F1000F02D10120BDE8F09F0BE057F85D
:10296000250008B90220F7E757F8250000F0BFFF5F
:102970000644681CC5B24D45F1DB022000EB49005E
:1029800000EB060A0AF105012046FFF72BFB206841
:1029900008B90320E0E7A2216268501C606020684B
:1029A0008154D4E9000281185046FFF755FB0FFA15
:1029B00080FBBBF1000F04DA2046FFF73FFB042049
:1029C000CAE76068584460604FEA18216268501C8A
:1029D0006060206881546268501C6060206800F864
:1029E000028000252CE00000246470007B226473C8
:1029F0005F6964223A222573227D0000246372738A
:102A0000702F000057F8250000F071FF0646C6F34E
:102A100007216268501C6060206881546268501C05
:102A2000606020688654D4E90023D01857F8251038
:102A3000324600F038FF606830446060681CC5B200
:102A40004D45DFDB002087E7014601208A781AB96F
:102A5000CA781E2A00D1002070472DE9FC5F81460C
:102A60000D4614461E46DDE90C8B99F8000000F077
:102A70000F0A002001900AF008000090CAF34100FC
:102A80008BF8000001AA042109F10100FFF7FBFA0D
:102A90004844471C0198022802D30AF0010010B1F3
:102AA000FF20BDE8FC9F7878397840EA012020803B
:102AB0002088801C0199884201D9FF20F1E7AFF2FC
:102AC000C051B81C00F001FF08B10F20E9E79BF8E6
:102AD000000020B101283DD0022877D13BE00098CA
:102AE00008B1FF20DDE72188481C00F015FD2860B3
:102AF000286808B9FF20D4E72288511C286800F014
:102B00005AFF2288B91C286800F010FF0198801E27
:102B10002188401AA8F80000B8F80010481C00F0FE
:102B2000FBFC3060306820B9286800F024FDFF20ED
:102B3000B7E7B8F80020511C306800F03CFFB8F847
:102B40000020B4F800C0BB1C0CEB0301306800F09F
:102B5000EDFE4FE000BF2088801C0199884201D91A
:102B6000FF209EE72088C01C395C2088801C385CD0
:102B700041EA00210E9801800E9808B9FF2090E7E5
:102B80002188481C00F0C8FC2860286808B9FF208C
:102B900087E72288511C286800F00DFF2288B91CA5
:102BA000286800F0C3FE0198001F2188401AA8F889
:102BB0000000B8F80010481C00F0AEFC306030682F
:102BC00028B9286800F0D7FCFF206AE710E0B8F8C1
:102BD0000020511C306800F0EEFEB8F80020B4F878
:102BE00000C03B1D0CEB0301306800F09FFE01E0CC
:102BF000FF2056E700BF2B21284600F04AFE20B9EF
:102C00002321284600F045FE08B1FF2049E70020B7
:102C100047E770B505460C4604212046FFF7E2F968
:102C2000206808B9012070BD40216268501C6060B6
:102C30002068815402216268501C606020688154C1
:102C400029126268501C6060206881546268501CC0
:102C50006060206885540020E5E701464878022836
:102C600001D001207047887820B9C8780A2801D19E
:102C70000020F7E70120F5E770B505460C46042172
:102C80002046FFF7AFF9206808B9012070BD502138
:102C90006268501C60602068815402216268501C88
:102CA00060602068815429126268501C606020684E
:102CB00081546268501C6060206885540020E5E7FC
:102CC00001464878022801D001207047887820B951
:102CD000C8780A2801D10020F7E70120F5E770B590
:102CE00005460C4604212046FFF77CF9206808B908
:102CF000012070BD62216268501C606020688154B0
:102D000002216268501C6060206881542912626848
:102D1000501C6060206881546268501C60602068AC
:102D200085540020E5E702465078022801D00120B2
:102D300070479078B0EB112F05D1D078CBB2984284
:102D400001D10020F4E70120F2E770B505460C46FA
:102D500004212046FFF746F9206808B9012070BD1C
:102D600070216268501C6060206881540221626892
:102D7000501C60602068815429126268501C606099
:102D8000206881546268501C60602068855400206F
:102D9000E5E701464878022801D00120704788788D
:102DA00020B9C8780A2801D10020F7E70120F5E70B
:102DB00010B5044602212046FFF714F9206808B92F
:102DC000012010BDC0216268501C606020688154E1
:102DD00000216268501C6060206881540020F0E788
:102DE00030B58BB000200790089009900A9001251B
:102DF000D3A0D5A3D6A2D8A10090E348FEF7DAF875
:102E000007A8002102910391CDE9041000912B0243
:102E1000CBA20191CCA1CEA0FFF78DF9002842D121
:102E2000089A91B20798FEF755FFFA20FEF769FF5E
:102E30000446002C33D02046FFF748F902282ED153
:102E40002046FFF7DDFA062823D2DFE800F0030969
:102E50000E13181DCDA1CC48FEF7ACF800251DE0DF
:102E6000D0A1C948FEF7A6F818E0D7A1C648FEF7DA
:102E7000A1F813E0DEA1C448FEF79CF80EE0E5A13E
:102E8000C148FEF797F809E0EDA1BF48FEF792F8B8
:102E900004E0F7A1BC48FEF78DF800BF00BF07A80B
:102EA000FFF7CCF803E0F9A1B748FEF783F828460E
:102EB0000BB030BD70B586B004460D46002600202C
:102EC000029003900490059007E054F82620F8A1A2
:102ED000AD48FEF76FF8701CC6B2AE42F5DB02A833
:102EE0002B462246002100901420FFF78EFC38B9B3
:102EF000039A91B20298FEF7EDFE02A8FFF79EF842
:102F000006B070BD70B588B005460C460020049030
:102F100005900690079023462A46EBA19A48FEF7B3
:102F200049F8204600F0E3FC064604A801210022EF
:102F300000923346CDE901210390224629460A201A
:102F4000FFF76DFA38B9059A91B20498FEF7C2FE00
:102F500004A8FFF773F808B070BD2DE9F04190B0F8
:102F6000074600200C900D900E900F900B900A9049
:102F700009900890002607900025002480463846D6
:102F8000FFF7A4F80646F01E0D2874D2DFE800F023
:102F90002B77809AB673BF73CD737373070008AB3A
:102FA0000BAA0AA93846FFF7A8FB0546D5B9BDF814
:102FB00020000090CCA17448DDE90A23FDF7FAFF58
:102FC0000CAADDE90A01FFF7DEFB58B9CFA16E4874
:102FD000FDF7F0FF0D9A91B20C98FEF77BFE0CA85E
:102FE000FFF72CF856E2CF4807A908AA0BABCDE9AA
:102FF0000021029009AA0AA93846FFF72EFD0546CE
:10300000002D3BD1BDF820000B99CDE90010BDF893
:103010002430C5A15C480A9AFDF7CCFF9DF81C003E
:10302000012802D0022827D112E00CA9BD4800884F
:10303000FFF7EFFD58B9CBA15348FDF7BBFF0D9A41
:1030400091B20C98FEF746FE0CA8FEF7F7FF14E0CD
:103050000CA9B4480088FFF70FFE58B9C7A14A4829
:10306000FDF7A8FF0D9A91B20C98FEF733FE0CA85D
:10307000FEF7E4FF01E00AE200BF00BF0AE23846C3
:10308000FFF7EBFD18B9C3A13F48FDF793FF01E23D
:103090003846FFF715FEA0B9C6A13B48FDF78AFFE9
:1030A0000CA90A20FFF71BFE58B9C8A13648FDF746
:1030B00081FF0D9A91B20C98FEF70CFE0CA8FEF75A
:1030C000BDFFE7E1974801883846FFF72CFEA0B91D
:1030D000C4A12D48FDF76EFF0CA90A20FFF735FEAD
:1030E00058B9C6A12848FDF765FF0D9A91B20C9812
:1030F000FEF7F0FD0CA8FEF7A1FFCBE13846FFF785
:1031000048FE18B9C4A12048FDF754FFC2E1384673
:10311000FFF7FAFB20B9C6A11B48FDF74BFF03E000
:10312000CAA11948FDF746FFB4E13846FFF78CFC09
:1031300020B9CDA11448FDF73DFFA7E1A2E10000B1
:103140003536313638333900746573740000000049
:1031500037373234370000004F6E654E65745F4478
:1031600065764C696E6B0D0A50524F49443A2025E2
:10317000732C09415549463A2025732C094445567C
:1031800049443A25730D0A000038014054697073B0
:103190003A09B7FECEF1C6F7C1ACBDD3B3C9B9A6E3
:1031A0000D0A00005741524E3A09B7FECEF1C6F75C
:1031B000C1ACBDD3CAA7B0DCA3BAD0ADD2E9B4EDDF
:1031C000CEF30D0A000000005741524E3A09B7FEF7
:1031D000CEF1C6F7C1ACBDD3CAA7B0DCA3BAB7C79E
:1031E000B7A8B5C4636C69656E7469640D0A0000A4
:1031F0005741524E3A09B7FECEF1C6F7C1ACBDD326
:10320000CAA7B0DCA3BAB7FECEF1C6F7CAA7B0DC36
:103210000D0A00005741524E3A09B7FECEF1C6F7EB
:10322000C1ACBDD3CAA7B0DCA3BAD3C3BBA7C3FB91
:10323000BBF2C3DCC2EBB4EDCEF30D0A000000001C
:103240005741524E3A09B7FECEF1C6F7C1ACBDD3D5
:10325000CAA7B0DCA3BAB7C7B7A8C1B4BDD328B159
:10326000C8C8E7746F6B656EB7C7B7A8290D0A00A9
:103270004552523A09C1ACBDD3CAA7B0DCA3BACEFD
:10328000B4D6AAB4EDCEF30D0A0000005741524E59
:103290003A094D5154545F5061636B6574436F6ECE
:1032A0006E656374204661696C65640D0A000000F8
:1032B00053756273637269626520546F7069633A13
:1032C0002025730D0A0000005075626C6973682038
:1032D000546F7069633A2025732C204D73673A2030
:1032E00025730D0A00000000636D6469643A2025AF
:1032F000732C207265713A2025732C207265715FE2
:103300006C656E3A2025640D0A00000054697073E4
:103310003A0953656E6420436D64526573700D0AFB
:103320000000000040000020746F7069633A20259F
:10333000732C20746F7069635F6C656E3A2025642E
:103340002C207061796C6F61643A2025732C207099
:1033500061796C6F61645F6C656E3A2025640D0A5B
:1033600000000000546970733A0953656E64205080
:1033700075626C69736841636B0D0A005469707300
:103380003A0953656E64205075626C6973685265C2
:10339000630D0A00546970733A094D51545420501A
:1033A00075626C6973682053656E64204F4B0D0A1B
:1033B00000000000546970733A0952657620507518
:1033C000626C6973685265630D0A0000546970731A
:1033D0003A0953656E64205075626C697368526572
:1033E0006C0D0A00546970733A0952657620507565
:1033F000626C69736852656C0D0A000054697073E1
:103400003A0953656E64205075626C697368436F46
:103410006D700D0A00000000546970733A0952651E
:1034200076205075626C697368436F6D700D0A0089
:10343000546970733A094D51545420537562736343
:1034400072696265204F4B0D0A0000005469707369
:103450003A094D5154542053756273637269626521
:10346000204572720D0A0000546970733A094D517B
:10347000545420556E537562736372696265204FB0
:103480004B0D0A001BA12348FDF794FD02E04FF00D
:10349000FF3500BF00BFFEF7D9FB681C10B910B0A4
:1034A000BDE8F0817D210B9800F0F3F90446A4B14A
:1034B000681C90B1641C06E014F8012B404608F12A
:1034C000010804A90A542078302802DB2078392822
:1034D000F2DD04A800F0D0F980460F2E01D0032EB3
:1034E00005D10A9800F047F80B9800F044F800BFA7
:1034F000D5E70000546970733A094D515454205572
:103500006E537562736372696265204572720D0A4B
:10351000000000000038014070B5064600F070FA67
:10352000056806F10B0020F00704B4429CBF0020A0
:1035300070BD2B466A68BAB11068A04210D304F17E
:10354000080188423CBF5068586007D35168101981
:1035500041601168091B016058601460101D70BD46
:1035600013465268002AE7D12146284600F054FA53
:103570000028DED170BD70B50446051F00F040FA8A
:103580000068002C14BF446870BD002C18BFAC420A
:103590003CBF20466468F8D301680A18AA4218BFE5
:1035A000456003D12A680546114401602868411925
:1035B000A1421CBF6C6070BD6168696021680844ED
:1035C000286070BD7CB51D4616460C00009001D0E9
:1035D0002044401E074B7B442A46694601903046F2
:1035E00000F00FFB05461CB10020694600F01CFBF3
:1035F00028467CBD590600000FB41CB5084B06AA2E
:103600007B4469460090059800F0FBFA04460020D0
:10361000694600F009FB20461CBC5DF814FB000065
:103620002506000070B50C460546012A05D028780D
:10363000800600D5EA69002302E0012305E05B1C57
:10364000934202D2E05C0028F9D1A869E618C01ABA
:10365000A861286A18442862284600F027FA04E086
:10366000D5E9012114F8010B9047B442F8D328465C
:1036700000F032FA70BD00002DE9F041064600244A
:1036800010687529314616A510D000F036FA0028CA
:1036900002DA404213A507E031688A0701D512A576
:1036A00002E0490704D511A5012401E000F02EFA3B
:1036B00000210A2206F1240709E0B0FBF2FCB0FB6E
:1036C000F2F302FB1C00303078541846491C0028E5
:1036D000F3D123462A463046BDE8F04100F01FBA38
:1036E000000000002D0000002B0000002000000062
:1036F0002DE9F05F894604464FF0000ADFF874B107
:10370000FB44C0F820A02046E1688847002874D018
:10371000252806D0D4E901219047206A401C206268
:10372000F1E700265F462046E168884720280546E5
:1037300007DB312D05D2781910F8200C08B10643AB
:10374000F1E7B00701D526F00406C4F81CA0002755
:10375000C4F818A02A2D09D0284601F08DFC38B3F2
:1037600004EB8708303DC8F8185019E059F8041BDD
:10377000204604EB87029161E1688847012F0546E6
:1037800018D1E069002820DA26F020061DE0D8F8DC
:10379000180000EB800005EB40003038C8F8180036
:1037A0002046E1688847054601F066FC0028EED116
:1037B000012F0AD02E2D08D12046E16888477F1CB2
:1037C0000546022F46F02006C4DBA069002803DA74
:1037D000404246F00106A061F00701D026F0100635
:1037E0006C2D0BD0682D09D04C2D39D06A2D35D0D9
:1037F000742D35D07A2D33D016E038E0E1682F46AD
:1038000020468847B842054609D16C2F26D04FF490
:103810008060E168064320468847054604E06C2F37
:103820001AD04FF4807006430DB3A5F1410019285A
:1038300002D8203546F400664A46294620462660CE
:103840004E46FCF7AFFC80B101280BD0F61D26F0E8
:10385000070000F1080956E74020E4E78020D8E798
:103860000020D6E706F104094DE7284652E7206A12
:10387000BDE8F09F1A23000070B5064600F0C4F8BA
:103880000468054630460A22002100F00FFB2C6038
:1038900070BD401ECAB210F8011F8A4202D0002932
:1038A000F9D10020704710B5431E13F8014F002CCA
:1038B000FBD105E011F8014B002C03F8014B03D0BC
:1038C000521EF7D20021197010BD30B505460B46C7
:1038D0002A4613F8014B12F8010B08B1A042F8D0A8
:1038E0001CB1002802D06D1CF1E7284630BD10B590
:1038F000431C02E010F8011B71B18107FAD14FF0AF
:10390000013202C88C1A8C4314EAC211F9D0C01AD1
:103910000A0603D0C01E10BDC01A10BD0A0401D093
:10392000801E10BD0902FCD0401E10BD032A40F2CB
:10393000308010F0030C00F0158011F8013BBCF151
:10394000020F624498BF11F801CB00F8013B38BF69
:1039500011F8013BA2F1040298BF00F801CB38BF77
:1039600000F8013B11F0030300F0D882083AC0F0E0
:10397000088051F8043B083A51F804CBA0E808103D
:10398000F5E7121D5CBF51F8043B40F8043BAFF370
:103990000080D20724BF11F8013B11F801CB48BFCA
:1039A00011F8012B24BF00F8013B00F801CB48BF00
:1039B00000F8012B70474FF000020429C0F012807C
:1039C00010F0030C00F0DE82CCF1040CBCF1020F0D
:1039D00018BF00F8012BA8BF20F8022BA1EB0C01A7
:1039E00000F0D0BA5FEAC17C24BF00F8012B00F8D8
:1039F000012B48BF00F8012B704770477047704794
:103A000000487047CC00002000487047C4000020E8
:103A1000704770477047704738B504460A46002023
:103A20006946AFF30080002808BF38BD0246009900
:103A3000204600F0D9FA012038BD012000F0C5BDB4
:103A4000F8B5AFF30080054600200C46102000BFFB
:103A50000646A819A0420DD9324669460020AFF3A8
:103A60000080070008BF00F0B0FD0098A04218BF1A
:103A70000546C419FFF7C4FF05600746F01D20F096
:103A800007004619284600F00AF8B44208BFF8BDFE
:103A9000A21B31463868BDE8F84000F0A5BA002105
:103AA0000160C0E9011070471020704770B50446EE
:103AB00085690068C10601D5302600E02026C007D0
:103AC00007D070BDD4E9012130469047206A401CE0
:103AD00020626D1EF6D570BD70B50446856900780C
:103AE000C00707D170BDD4E9012120209047206A8A
:103AF000401C20626D1EF6D570BD09684A0501D5CF
:103B000040B27047C905FCD500B2704709684A0544
:103B100001D5C0B27047C905FCD580B270472DE908
:103B2000F0470D4699469246044600F12408016884
:103B3000880604D5E06921F01001216000E0012031
:103B4000A84201DD471B00E00027A1697A1902EBBA
:103B50000900081AA0612078C00602D42046FFF7A9
:103B6000A5FF002608E0D4E901211AF806009047D5
:103B7000206A401C761C20624E45F4DB2078C0068B
:103B80000AD52046FFF792FF06E0D4E90121302054
:103B90009047206A401C2062381EA7F10107F4DC20
:103BA00007E0D4E9012118F805009047206A401C7D
:103BB0002062281EA5F10105F3DC2046FFF78CFFEB
:103BC0002078000602D50220BDE8F0870120FBE73F
:103BD00011680268006A530501D508700AE0D30530
:103BE00001D5088006E0130603D5C217C1E900021B
:103BF00000E008600120704701694A1C02610878F2
:103C0000704700B58FB0CDE901310021059105491C
:103C10007944CDE9031011466846FFF769FD0FB0FE
:103C200000BD0000E5FFFFFF0A6802F8010B0A6013
:103C30007047D1E900239A4202D2531C0B601070E6
:103C4000704710B5436913B1AFF3008001E0FFF78F
:103C5000E9FC012010BD127800F124010A70002255
:103C60004A700122EDE711684FF0FF32E9E70000EA
:103C70002DE9FF5F15468A460446DFF8AC80F8441C
:103C80000027D8E900103E46CDE9001010E03AF8D0
:103C900016106A4602A800F078FC411C07D0217873
:103CA000890603D5E269391891420DD80744761C7C
:103CB0002078800602D5E069B84205DDAE42E6DB39
:103CC0003AF816000028E2D1A069C01BA061204686
:103CD000FFF7ECFED8E90010CDE90010002017E056
:103CE0003AF818106A4602A800F04FFCB0F1FF3F06
:103CF00081460BD000250DF1080B05E0D4E9012128
:103D00001BF8050090476D1C4D45F7D308F10100E5
:103D1000B0428046E4DB206A384420622046FFF748
:103D2000DBFEBDE8FF9F0000AE1D00002DE9F04165
:103D30008046D21D22F007020025D2E90002F529B3
:103D400015A614D0011E72F1000106DA0023D0EB93
:103D5000030063EB020211A608E0D8F800108B07FD
:103D600001D50FA602E0490701D50EA6012511468F
:103D7000002408F1240704E000F050F930323A55ED
:103D8000641C50EA0102F7D12B46324621464046D8
:103D9000BDE8F041FFF7C3BE000000002D000000A9
:103DA0002B0000002000000030B4002100F12404AA
:103DB00008E002F00705D208303542EA4372DB081A
:103DC0006554491C52EA0305F3D10468002310A28C
:103DD000250708D504F020040C4304D0C46901234E
:103DE0000CA2641EC46130BCFFF799BE10B5044636
:103DF00021461068FFF78AFE02462046BDE81040C3
:103E00000023D1E7D21D22F00701D1E90023CBE73F
:103E10000000000030000000F0B40D4601880905E4
:103E200002D5214C7C4402E01F4C7C440E3400211E
:103E300000F1240608E002F00F071209E75D42EAEC
:103E400003721B097754491C52EA0307F3D1027825
:103E50000023120704D5702D06D009B102231134B6
:103E60002246F0BCFFF75BBE01231034F8E770B5C3
:103E700004460D4621461068FFF748FE02462946D3
:103E80002046BDE870400023C6E7D21D22F007039C
:103E9000D3E90023C0E70368126843F020030360FE
:103EA0000823C3610023B7E7101C00002DE9F04789
:103EB00091460F4680460446002614F8015B2DB15A
:103EC00000F08AF80068405DC007F6D12B2D02D0C3
:103ED0002D2D18D0641E4A463946204600F006FBB8
:103EE00027B13968A14201D1C7F800804FF0020420
:103EF00071050BD54042002803DDFFF785FD046006
:103F0000A007BDE8F08746F48066E4E70028F8DA09
:103F1000FFF77AFD04606FF00040F2E710B5203A39
:103F2000C0F00B80B1E81850203AA0E81850B1E872
:103F30001850A0E81850BFF4F5AF5FEA027C24BF28
:103F4000B1E81850A0E8185044BF18C918C0BDE81F
:103F500010405FEA827C24BF51F8043B40F8043BE8
:103F600008BF7047D20728BF31F8023B48BF11F89D
:103F7000012B28BF20F8023B48BF00F8012B7047F7
:103F80004FF0000200B5134694469646203922BFF2
:103F9000A0E80C50A0E80C50B1F12001BFF4F7AF3D
:103FA000090728BFA0E80C5048BF0CC05DF804EB1F
:103FB000890028BF40F8042B08BF704748BF20F88D
:103FC000022B11F0804F18BF00F8012B7047000042
:103FD00000487047C400002010B500F023FB001D0E
:103FE00010BD00BFA5100000034640688C460028A5
:103FF00018BF88423CBF03464068F8D3186818448D
:10400000884207D00CF1030020F00700001D411A80
:10401000521A0146081D0A60FFF7ADBA30B5B0F17B
:104020000A024FEA900E71F100034EEA817EB0EB76
:104030000E0061EB91014FEA101E4EEA017E10EB7B
:104040000E0041EB11114FEA102E4EEA016E10EBFB
:104050000E0041EB11214FEA104E4EEA014E10EBDB
:104060000E0041EB1141401841F100014FEAD00030
:1040700040EA41704FEAD10110EB80054FEA81041C
:1040800044EA907444EB01046D1944EB0404521BA0
:10409000A3414FF0000348BF0A3200D530BD401C99
:1040A00041F1000130BD70472DE9FF4F0C461E461F
:1040B0004FF0FF378BB0D2E90001DDF860800A9045
:1040C0008A46C1F30A5505B93D46002108464FF01E
:1040D0000000BAF1000F00F4400005DA00EB8000A8
:1040E0004FF4400101EA50004FEA9059B9F1010F35
:1040F00000DDB9460A9850EA4A000ED044F6105046
:10410000A5F2FF3545432F14B8F1000F1ED07542BC
:10411000291E1EDDC9F100021CE0B8F1010F4FF0AD
:10412000000001D0302103E0F24305E02154401C9F
:10413000B042FBDB30460022002121540B99C1F82C
:104140000880C1E900200FB0BDE8F08FBD1B6D1CD9
:10415000DEE74A4600DA694206A800F0B5FA06AB87
:1041600093E8070003AB83E8070050460A9900F084
:10417000B4FB8DE80700A0F500501F3800900398AD
:10418000002D09DD42F21F014A46084403A90390AD
:10419000684600F013FE08E0A0F500504A461F38BC
:1041A00003A90390684600F01DFE8DE80700000497
:1041B000000C03D04FF0FF30410800E01046B8F18A
:1041C000000F03D00022009215461EE0751E05D494
:1041D000FFF724FF303262556D1EF9D5B346012238
:1041E000084302D000227F1C04E02078302801D14F
:1041F00000227F1E002A099786D01DE0112D07DAC4
:10420000FFF70CFF303262556D1C50EA0102F5D108
:10421000084302D00098C8B10EE00021681E05E0F6
:10422000235C625C63542254401E491C8142F7DBCC
:10423000AB46A81B401E0990002004F80B000B9809
:10424000099AC0F80880C0E9002B7CE711264FF0DE
:10425000000859E72DE9F04F88460446D21D22F0A8
:10426000070191B0D1E90001CDE90A0100F0F0FEAB
:1042700002460B98C00F01D02D2007E0206881076F
:1042800001D52B2002E0202101EAC000032A099079
:1042900001D0072A05DB03464146204600F0C6F957
:1042A0000BE12078800601D5E06900E00620B8F136
:1042B000650F814606D0B8F1660F18D0B8F1670FC8
:1042C00070D131E00020B9F1110F009001DB112312
:1042D00001E009F101030AAA01A90CA8FFF7E4FE15
:1042E000DDE90C70002609F10105834647E0012055
:1042F0004B4600904FF000470AAA01A90CA8FFF70F
:10430000D3FEDDE90DB00C995D46002610B909F128
:1043100001000D18B9EB050003D4C0F1FF3609F117
:104320000105A5EB09002BE0B9F1010F01DA4FF00F
:1043300001090020B9F1110F0090484601DD112359
:1043400000E003460AAA01A90CA8FFF7ADFEDDE9CB
:104350000C704D4600268346207800070AD4AB45F2
:1043600000DA5D4601A8012D04DD411911F8011C98
:10437000302907D04F4502DA17F1040F04DA012083
:1043800082460FE06D1EEEE7002F02DCED1B3E447F
:1043900003E0781CA84200DD7D1CB81B00F1010A77
:1043A0004FF000472078000703D4AA4501DB4FF007
:1043B000FF3A0021B7F1004F0DF143088DF843108B
:1043C00024D002202B23002F01DA7F422D230A2143
:1043D000021EA0F1010000DC5FB197FBF1FC97FB2E
:1043E000F1F201FB1C7C17460CF1300C08F801CDF2
:1043F000EEE7A8F1010003702188090501D54521E8
:1044000000E06521A0F1010800F8011C09980FA93E
:10441000A1EB0807FF1D00B10120411901EBEA7073
:10442000A1693844081A401EA0612078C00602D451
:104430002046FFF73BFB099828B1D4E901219047BA
:10444000206A401C20622078C00622D52046FFF753
:104450002DFB1EE0002E04DBB34502DD01A8805DCC
:1044600000E03020D4E901219047206A401C2062FE
:10447000761CAAF101005FEA000A0AD100F0D2F826
:10448000C0680168405CD4E901219047206A401C63
:104490002062281EA5F10105DCDC07E0D4E901213A
:1044A00018F8010B9047206A401C2062381EA7F1C3
:1044B0000107F3DC2046FFF70FFB032011B043E6B2
:1044C00010B5436913B1AFF3008001E0FFF7D0FBF3
:1044D000012010BD128800F1240182840022C284D0
:1044E0000122EDE711684FF0FF32E9E72DE9F05FB7
:1044F000824615468B4600270AF10104B94600782A
:10450000302801D09DB113E014F8010B0127782861
:1045100003D0582801D045B10AE00DB1102D07D1C4
:10452000002714F8010B102502E0082500E00A25F9
:104530000026B0460EE005FB080005FB06F101274A
:104540001FFA80F801EB1046B6F5803F00D3B9465C
:1045500014F8010B294600F0A9F80028EBDABBF1AA
:10456000000F05D00FB1641E00E05446CBF80040A8
:10457000B9F1000F06D0FFF747FA02210160C81E0B
:10458000BDE8F09F48EA0640FAE770B516460C46CB
:104590000546FFF721FD036893F80101012806D0C5
:1045A000FF2C0FD8185D68B101202C7070BDD3F8B6
:1045B00007013246214603F2071303442846BDE8AB
:1045C000704018474FF0FF3070BD10B500F0F6F89E
:1045D000BDE8104000F0ECB870477546FFF7F8FCF6
:1045E000AE4605006946534620F00700854618B0E0
:1045F00020B5FCF727FDBDE820404FF000064FF046
:1046000000074FF000084FF0000B21F00701AC4607
:10461000ACE8C009ACE8C009ACE8C009ACE8C00926
:104620008D46704700487047E40000202DE9F041B6
:104630001F46044603260168072A01F4006004DBD4
:1046400008B116A505E016A503E008B115A500E020
:1046500015A521F010002060A069C01EA0610FB157
:10466000401EA0612046FFF721FA4FB1D4E9012195
:1046700038469047206A401C2062C01C206206E039
:10468000206AFAE7D4E9012115F8010B9047761E5C
:10469000F8D22046FFF720FABDE8F0814E414E00E7
:1046A0006E616E00494E4600696E66003A2800D27F
:1046B000303820F02002412A01D3A2F1370088428D
:1046C00001D34FF0FF3070472DE9F0478146164681
:1046D0008AB0334878440DC88DE80D0030487844DE
:1046E000801C03AC0DC884E80D0041F69B300844E3
:1046F000372190FBF1F290FBF1F5A5F1800501FB6C
:1047000012041B3C02D56442012000E00020DFF8C7
:1047100090A080460027FA44AAF1BE0A0DE0E00707
:1047200009D03246684607EB47010AEB810100F0E9
:1047300059FB8DE8070064107F1C002CEFD1184F47
:104740007F44AC3F18E0E80714D007EB04100DF1EC
:10475000180A90E80E008AE80E00C068F04201D105
:1047600098190890324606A903A800F03BFB03AB5A
:1047700083E807006D10641C002DE4D132466946C1
:10478000B8F1000F03A802D000F018FB01E000F020
:1047900029FBC9E90001C9F808200AB0BDE8F08783
:1047A000041400000446AFF300802046FBF761FDCF
:1047B000002801D000F02AB87047000010B5012889
:1047C00005D0002103A000F027F8012010BD09A1A9
:1047D000F8E7000053494752544D454D3A204F7574
:1047E00074206F662068656170206D656D6F7279E9
:1047F000000000003A2048656170206D656D6F72A1
:104800007920636F727275707465640001491820B5
:10481000ABBEFEE72600020070B505460C460A2036
:1048200000E06D1C00F052F835B128780028F8D16E
:1048300002E0641C00F04AF814B120780028F8D196
:10484000BDE870400A2000F041B800004FF0013C84
:1048500050F8042B51F8043B9A4221D1A2EB0C03EF
:10486000934313EACC1317D150F8042B51F8043BAF
:104870009A4215D1A2EB0C03934313EACC130BD14C
:1048800050F8042B51F8043B9A4209D1A2EB0C03D7
:10489000934313EACC13DBD04FF00000704700BF06
:1048A000D01A01BAB1FA81F101F0180122FA01F02F
:1048B000CB40C1F12001DBB2C0B2C01A2CFA01F327
:1048C000D11A914311EAC311E6D1704708B5694680
:1048D0008DF800000320ABBE08BD5FEA400C08BFA6
:1048E00091F0000F4FEA8C234FEAC12243EA515165
:1048F0004FEA1C5018BF00F5F0404FEA300018BFD7
:1049000041F000415FEA6C5C00F02980BCF1FF3FA0
:1049100008BF40F080407047130C06BF12044FF0F0
:10492000100C4FF0000C130E04BF12020CF1080C17
:10493000130F04BF12010CF1040C930F04BF92007B
:104940000CF1020CD30F04BF52000CF1010C114604
:104950004FF00002A0F11F00A0EB0C00704711F017
:10496000004F08BF704731F000413FF4D5AF0B0C4A
:1049700006BF09044FF0100C4FF0000C0B0E04BFE3
:1049800009020CF1080C0B0F04BF09010CF1040C17
:104990008B0F04BF89000CF1020CCB0F04BF490040
:1049A0000CF1010CCCF12003A0EB0C0022FA03F374
:1049B00002FA0CF241EA030100F10100704720F015
:1049C0007F4C80EA030023F07F47ACEB070303F53D
:1049D0007C5300F0004003F1FF032DE980494FEACA
:1049E000154B09B44FEA144325EA0B4E24EA034859
:1049F0000FF2042606EB132749083E785FEA3202DD
:104A000003FB0667C7F5000707FB06F64FEA5437B6
:104A10004FEAD64606F1020607FB066CCCF1005CB5
:104A20004FEA1C472CEA074C07FB06F40CFB06F583
:104A300004EB15464FEA961634BF00204FF00040B5
:104A40004FEAD13706FB07FC4FEA1C4C0CFB0BF777
:104A5000D21B03FB0CF761EB07010CFB0EF7B0EB6D
:104A6000074072EB17420CFB08F734BFA2EB07427A
:104A7000B2EB074261EB17414FEA0C444FEA910752
:104A800006FB07FC4FEA1C4C0CFB0BF7B0EBC740D6
:104A900072EB573203FB0CF734BFA2EBC742B2EB09
:104AA000C74261EB57310CFB0EF7B0EBC70072EB5E
:104AB00057720CFB08F734BFA2EBC702B2EBC70278
:104AC00061EB5771039F4FEA816141EA921104EB58
:104AD000CC044FEAD1374FEA826206FB07FC42EA78
:104AE00090124FEA80604FEA1C4C0CFB0BF7D21B74
:104AF00003FB0CF761EB07010CFB0EF7B0EB074073
:104B000072EB17420CFB08F734BFA2EB0742B2EB83
:104B1000074261EB17414FEA8C554FEA910704EBCE
:104B20009C2406FB07FC4FEA1C4C0CFB0BF7B0EB7C
:104B3000C74072EB573203FB0CF734BFA2EBC742FE
:104B4000B2EBC74261EB57310CFB0EF7B0EBC7007D
:104B500072EB57720CFB08F734BFA2EBC702B2EB43
:104B6000C70261EB577115EB4C254FEA816141EAB1
:104B700092114FEA82624FEAD13742EA901206FB65
:104B800007FC44F100044FEA80604FEA1C4C0CFB28
:104B90000BF7D21B03FB0CF761EB07010CFB0EF7C5
:104BA000B0EB074072EB17420CFB08F734BFA2EBE7
:104BB0000742B2EB074261EB174115EB1C154FEAB8
:104BC000813141EA92414FEA823242EA90424FEA11
:104BD00080304FEA0C7644F1000448EA03434EEA81
:104BE0000B484FF0000EB2EB080C71EB030724BF2B
:104BF000624639464EEB0E0E4FF0000B0018524144
:104C000049414BEB0B0BB2EB080C71EB03077BF14B
:104C1000000B24BF624639464EEB0E0E4FF0000BE0
:104C20000018524149414BEB0B0BB2EB080C71EBF6
:104C300003077BF1000B24BF624639464EEB0E0E94
:104C400051EA020718BF46F0010616EB0E7655F141
:104C5000000254F1000103D5BDE88901BDE80088D8
:104C6000BDE88901BDE80048B619524141EB010198
:104C7000A3F10103704780807F7E7D7C7B7A797809
:104C8000777676757473727171706F6E6E6D6C6C11
:104C90006B6A6A69686867666665646463636261B3
:104CA0006160605F5F5E5E5D5D5C5C5B5B5A5A5934
:104CB00059585857575656555555545453535252A0
:104CC0005251515050504F4F4F4E4E4D4D4D4C4CF8
:104CD0004C4B4B4B4A4A4A49494948484847474741
:104CE000474646464545454444444443434343427E
:104CF000424242414141002B26D4770021D01CB5CD
:104D00004FEA370703B44FF010004FF010014FF097
:104D100000000FBCBDE810400BF1010BBBF1010F0F
:104D200008BF5FEA170722BF12F1010211F101016A
:104D30004FF0004143F1000300F0004043EA00005F
:104D40007047F9D35708DAE746EA064613F1400FF1
:104D50004FEA16461FDD13F1200FDFBF16430A4648
:104D6000002120335B42C8D0C3F1200746EA064643
:104D700002FA07F74FEA164646EA0706C3F120078C
:104D800022FA03F201FA07F721FA03F14FF00003C8
:104D900042EA0702B1E746EA020646EA06464FEA59
:104DA000164646EA0106BCBF46EA0646360C4FF0F8
:104DB00000034FF000024FF000019EE72DE9C048CC
:104DC000934630B491E8380007C831EA400C48BF38
:104DD00034EA430C03D5FFF7F2FDFFF78CFFF0BC7C
:104DE000BDE800882DE9C048934630B491E838000A
:104DF00007C810F0804F08BF13F0804F03D100F0B8
:104E000005F8FFF778FFF0BCBDE8008820F07F4789
:104E100080EA030023F07F4C07EB0C03A3F57C53DF
:104E200000F00040A3F1FE0392F0000F00F0B38009
:104E300095F0000F00F077802DE901494FEA11400D
:104E40004FEA144621EA004800FB06FC24EA064724
:104E500008FB06F607FB08F800FB07F718EB064807
:104E60004CEB164C4FEA124B18EB07484FEA15462D
:104E70004CEB174022EA0B4E0BFB06FC25EA0647DB
:104E80000EFB06F607FB0EFE0BFB07F71EEB064EAE
:104E90004CEB164C4FF000061EEB074E4CEB174B3D
:104EA00018EB0B0840F1000018EB0E0B58EB000854
:104EB00040F100008F1A4FF000013CBFC943661B50
:104EC00014BFB5EB040C00213CBFC943F61B4FEAED
:104ED00017444EEA8E0E27EA04454FEA1C4704FBAE
:104EE00007622CEA074C05FB07F70CFB05F604FBF1
:104EF0000CFC16EB074642EB174216EB0C4642EB56
:104F00001C421BEB060658EB0202414146EA9E0694
:104F100001D5BDE80189B619524141EB0101A3F168
:104F20000103BDE801894FEA14454FEA114724EA1D
:104F3000054621EA074C05FB07F406FB07F70CFBC7
:104F400006F105FB0CFC11EB074144EB17444FEA5B
:104F5000124711EB0C4144EB1C4422EA074C05FBC1
:104F600007F206FB07F70CFB06F605FB0CFC16EB3D
:104F7000074642EB174216EB0C4642EB1C456A18FB
:104F800054F1000148BF7047B619524141EB01018D
:104F9000A3F10103704795F0000F37D04FEA11429B
:104FA0004FEA144721EA024624EA074C02FB07F1C4
:104FB00006FB07F70CFB06F402FB0CFC14EB0744A2
:104FC00041EB17414FEA154714EB0C4441EB1C41F0
:104FD00025EA074C02FB07F506FB07F70CFB06F674
:104FE00002FB0CFC16EB074645EB174516EB0C468F
:104FF00045EB1C42121951F1000148BF7047B61928
:10500000524141EB0101A3F1010370474FEA1445FE
:105010004FEA114724EA054621EA074C05FB07F150
:1050200006FB07F70CFB06F24FF0000605FB0CFC35
:1050300012EB074241EB174112EB0C4251EB1C41C2
:1050400048BF7047921841EB0101A3F1010370477B
:10505000490050EAC12018BF04204A0D18BF40F093
:10506000010040F2FF72B2EB515F08BF40F0020056
:10507000012808BF0520704730380A2801D20120D6
:10508000704700207047000010B500290AD008784A
:10509000002807D005487844FFF7D8FB002801D046
:1050A000002010BD0248784410BD00008A0A0000AC
:1050B000820A000010B500290AD00878002807D01D
:1050C00005487844FFF7C2FB002801D0002010BD3E
:1050D0000248784410BD00006E0B0000660B000013
:1050E00010B591EA030F48BF83F0004300F12E830F
:1050F000841A71EB030C05D2121943EB0C03001B4D
:1051000061EB0C01DFF824E14FEA1154A4EB135CCE
:105110001EEA430F18BF9EEA445F73D023EA0E03D2
:10512000DCF1200E21EA045143F4801332D322FA39
:105130000CFE10EB0E0023FA0CFE41EB0E01CCF13D
:10514000200E03FA0EFE10EB0E0051F10001B1F536
:10515000801FCCF1200E32D201EB045112FA0EF274
:10516000BDE8104058BF7047401C38BF5FEA42029C
:1051700018BF7047002814BF20F0010041F1000162
:105180004FEA410313F5001F38BF7047A1F1C0413A
:1051900000F0CEBA012A43EB0302ACF1200CDCF1A3
:1051A0001F0E32BF4FF0000E23FA0CF310EB03007A
:1051B00041EB0451B4EB115FD0D0A1EB045101F5E8
:1051C000801149085FEA300001EB04510ED350F121
:1051D000000038BF12FA0EFE08D1BDE81040C9E742
:1051E000401C38BF5FEA4202CAD1C3E7BDE81040A5
:1051F0004FEA410313F5001F38BF7047A1F1C041CA
:1052000000F096BA9EEA445F08D011EA5E0FBDE84E
:10521000104004BF01F0004100207047BDE810407D
:1052200070B500F037FA00BF64FBBE3E0000E0FF3F
:105230002DE9C04130B4DFF8A0C23CEA111418BF18
:105240003CEA131400F0EC8081EA03051CEA111417
:1052500044EAD57418BF1CEA131500F0C780A4EB0C
:1052600005044FF0004545EAC12145EAC32341EA60
:10527000505143EA525304F17F74994204F50034CB
:105280004FEAC0204FEAC22208BF904200F09C8043
:105290004FEA13650FF24016765D4FEA134506FBA1
:1052A00005F7C7F1807706FB07F74FEAD737A7FB6B
:1052B00003687642C8F58038A7FB06CE38BFA8F150
:1052C000010807FB08E64FF0000EA6FB028CE6FB88
:1052D00003CEDCF1000CCEF1004E38BFAEF1010E72
:1052E000A6FB0C584FF000074FF00005E6FB0E87B9
:1052F000A1FB08C6A0FB07CE16EB0E0645F1000584
:10530000E1FB076515F1E04E7EBFA4F580345FEA4E
:1053100046066D4116F1800745F100054FEA172753
:105320004FEA066647EA0567A6F1DE46B6F1805FFA
:105330004FEA15251FD9384624F0010C05EBC4713E
:10534000BCF1FE6F01EB0C1102D8F0BCBDE800818E
:1053500024425CBF01F5801E9EEAC47F02D4F0BCEB
:10536000BDE80081244238D4F0BCA1F1C041BDE8C1
:10537000004100F0DDB94FEAD22242EA43524FEA3F
:10538000D323A7FB02864FEAD02040EA415007FB17
:1053900003661EEA0E0F4FEAD12105FB026658BFD5
:1053A000A6EB0056B6EB00564FEA520E4EEAC37E0D
:1053B00018EB0E0E56EB530EBDD518EB02085E41EE
:1053C0007F1C55F10005B6E74FF480154FF000073C
:1053D0004FF000064FF00008ADE7F0BC4FF00000C2
:1053E00001F1C04101F00041BDE8008111EA0C1F4C
:1053F0000CEA131500D00CE013EA0C1F00F0258016
:105400004FF00000F0BC81EA030101F00041BDE86B
:105410000081F0BCBDE8004181EA030100F088B9D9
:10542000F0BCBDE8004170B500F034F9097EFC3EE7
:1054300000F007B881EA03014FF0000001F00041DD
:10544000704781EA030100F073B9F0BCBDE8004188
:105450004FF0000021497047FFFDFBF9F7F5F4F22A
:10546000F0EEEDEBE9E8E6E4E3E1E0DEDDDBDAD8FF
:10547000D7D5D4D3D1D0CFCDCCCBCAC8C7C6C5C45D
:10548000C2C1C0BFBEBDBCBBBAB9B8B7B6B5B4B374
:10549000B2B1B0AFAEADACABAAA9A8A8A7A6A5A45F
:1054A000A3A3A2A1A09F9F9E9D9C9C9B9A99999823
:1054B0009797969595949393929191908F8F8E8EC6
:1054C0008D8C8C8B8B8A8989888887878685858453
:1054D00084838382828181800000FF070000F87F3F
:1054E0004FEA41034FEA5353A3F58063D3F11E0300
:1054F000C8BFD3F1210C0CDD4FF0004242EAC122BB
:1055000042EA505232FA03FC8CEAE17CACEBE170E7
:105510007047102BC4BF0020704703F5787CBCF1A6
:10552000FF3F04D06FF0004282EA2100704770B55F
:1055300000F0B0F84992248000207047F2E70000A4
:10554000DFF848C170B51CEA111E1EBF1CEA131516
:105550009EEA0C0F95EA0C0F00F06F8081EA0304BD
:1055600023EA4C134EEAD47E21EA4C1141F4801117
:1055700043F48013AE44A1FB024CA0FB0365AEF1E3
:105580007F7E361955EB0C05A1FB034C4CF1000353
:10559000A0FB021C16EB0C06654153F10003094207
:1055A00018BF46F0010613F4007F0BD14FEA033118
:1055B0004FEA0530340341EA155140EA16506FF0C6
:1055C00003020AE04FEAC3214FEAC520F40241EA90
:1055D000555140EA56506FF0020202EB2E4201EBA9
:1055E000025585EACE710AD05FEA440C18BF24F058
:1055F000004450F1000041F1000120EAD47040F273
:10560000FE7C624500D270BDA84214BF4FF08044BA
:105610004FF04044002E08BF0024BEF1806FA8BFA9
:10562000A1F1C041BDE8704080F282804FF00000DF
:1056300001F1C04101F0004170479EEA0C0F0CEAF5
:10564000131518BF95EA0C0F06D04FF0000081EA41
:10565000030E0EF0004170BD00F01CF88900013E01
:1056600000F007B800F009B84FEA430C5FEA5C5C51
:1056700008D081EA030100F05BB84FEA410C5FEA11
:105680005C5CF6D14FF00000014970470000FF0755
:105690000000F87F0EF1020E2EF0030E5EF8046B90
:1056A000364205D4012A43EB030515F5001F12D835
:1056B000012841EB010C1CF5001F0CD80ED14FEA5C
:1056C000D17C15F5001F0CEB4C0C0CF1020C08BF43
:1056D0004CEBD37C04E04FF0080C01E04FEAD37CA4
:1056E0000CEB4C0526FA05F606F00706B6F1040C9D
:1056F00006D20EEB860CBDE870404CF0010C604702
:10570000DFE80CF0090B02024FF000414FF00000FF
:10571000A1F5002170BD19461046012851EB010486
:1057200018BFD4F5001484BF002001F0004170BD03
:105730000808A0F500114FEA3101704710B591EA51
:10574000030F48BF83F000433FF5D2AC841A71EBDE
:10575000030C07D212198CF0004C43EB0C03001B16
:1057600061EB0C01DFF8A4E14FEA1154A4EB135CE8
:105770001EEA430F18BF9EEA445F00F0B08023EAA0
:105780006E03524221EA0451C3EB6E0338BF5B1E25
:10579000DCF1200E25D322FA0CFE10EB0E0043FAAA
:1057A0000CFE41EB0E01CCF1200E03FA0EFE10EBC5
:1057B0000E0051F10001CCF1200E29D412FA0EF2A4
:1057C00001EB0451BDE8104058BF7047401C1CBF9E
:1057D000B2F1004F704700280CBF491C20F00100B7
:1057E000704712EB020E43EB030218BF4FF0010E9D
:1057F0004EEA4202ACF1200CDCF11E0E54D943FA01
:105800000CFE10EB0E0051F1FF31CCF11E0ED5D580
:105810000EF1010E12FA0EFE404141EB010101EBC7
:10582000445C5FEA5C5C10D910EBDE7001EB045164
:1058300038BFBEF1004FBDE8104018BF70470028C8
:105840000CBF491C20F00100704730D24FEAD42C25
:1058500011F5001124F400641BD0B1FA81F20B3A67
:10586000A41AA41ED2F12003914030FA03F3194385
:10587000904001EBCC71002C01EB0451BDE81040CD
:10588000A8BF704701F1C0414FF0000001F0004196
:105890007047B0FA80F310FA03F100D110BDE41A9A
:1058A000173C4805C90AE4E701EB045110BD491053
:1058B00001EB0451BDE810404FEA300002E04FF028
:1058C000000170474A0008BF0042F8D0B2F5001F3F
:1058D00028BF704701F000414FF0000070479EEA7A
:1058E000445F07D011EA5E0FBDE8104004BF0021FD
:1058F00000207047BDE8104070B5FFF7CBFE00BF39
:1059000040DFF63E83F00041104670470000E0FFA4
:1059100043004FEAD30C4FEA3C0C43401FBF400703
:105920000CF1605113F0FE4F70471CF0006F03D173
:1059300000200CF0004170470CF0004343EA507027
:1059400010B540EACC0000F022F800BF0000009241
:105950004FEA0001FFF7ECBE4FF000414FF00000AE
:10596000A1F5002170470000B0FA80F310FA03F2AD
:10597000C3F19D030AD0D90501EB1220530638BFAD
:10598000704700F1010008BF20F0010070470EF1E0
:10599000020E2EF0030E5EF8044B244204D44FEAAC
:1059A0004102B2F17F4F11D84FEA4003B3F17F4F6C
:1059B0000CD80ED14FEAD07CB2F17F4F0CEB4C0CDF
:1059C0000CF1020C08BF4CEBD17C04E04FF0080C4A
:1059D00001E04FEAD17C0CEB4C0324FA03F404F011
:1059E0000704B4F1040C06D20EEB840CBDE81040A1
:1059F0004CF0010C6047DFE80CF0070802024FF0A2
:105A00000040A0F5800010BD0846420018BFD2F14A
:105A1000807288BF00F0004010BDFEF71BBC040080
:105A2000000800000000000000020001000010005B
:105A300000000000000000003031323334353637CA
:105A400038394142434445464030580030313233C2
:105A500034353637383961626364656640307800C2
:105A600002400000000000A000000000054000000F
:105A7000000000C8000000000C4000000000409C36
:105A800000000000194000000020BCBE0000000023
:105A900034400000BFC91B8E00000004B540000068
:105AA000504BCFD06607E2CF010000006C410000F0
:105AB0003E8251AADFEEA73401000000D942000067
:105AC000DCB5A0E23A301F97FFFFFFFFB4450000AE
:105AD000FD25A0C8E9A3C14FFFFFFFFFFF3F000066
